:020000040800F2
:10000000A00C002045010008B93700082D2E00087B
:10001000BD360008690A00085D3F000800000000C6
:10002000000000000000000000000000C1390008CE
:10003000850A000800000000A9390008C33900083B
:100040005F0100085F0100085F0100085F01000810
:100050005F0100085F0100085F0100085F01000800
:100060005F0100085F0100085F0100085F010008F0
:100070005F0100085F0100085F0100085F010008E0
:100080006D0A0008790A00085F0100085F01000896
:100090005F0100085F0100085F0100085F010008C0
:1000A0005F0100085F0100085F0100085F010008B0
:1000B000293A0008353A0008413A00085F01000873
:1000C0005F0100085F0100085F0100085F01000890
:1000D0005F0100085F010008453F0008513F00082C
:1000E0005F0100085F0100085F0100085F01000870
:1000F0005F0100085F0100085F0100085F01000860
:100100005F0100085F0100084D3A00085F01000828
:100110005F0100085F010008593A00085F0100080C
:100120005F0100085F0100085F0100085F0100082F
:10013000DFF80CD000F05AFB00480047D943000814
:10014000A00C00200648804706480047FEE7FEE76F
:10015000FEE7FEE7FEE7FEE7FEE7FEE7FEE7FEE777
:10016000253A000831010008202A04DB203A21FA50
:1001700002F00021704721FA02F3D040C2F12002C0
:100180009140084319467047D2B201E000F8012BB4
:10019000491EFBD270470022F6E710B513460A4607
:1001A00004461946FFF7F0FF204610BD30B480EA40
:1001B000010202F0004530F0004221F0004013D06F
:1001C00090B1C30DD40DC2F31601C0F31600E41AAA
:1001D00041F4000140F400027D34914201D3641CDB
:1001E00000E04900002C02DA30BC002070474FF4D8
:1001F00000000023914201D3891A034340084FEACB
:100200004101F7D151B1914202D14FF0004105E0D7
:1002100002D24FF0010101E06FF0010103EBC45085
:10022000284430BC00F078B92DE9FE4F81EA030480
:1002300004F0004421F0004100944FF0000B23F043
:10024000004350EA01045ED052EA03045BD0C3F3DA
:100250000A54C1F30A552C44A4F2F3340194A0FBD0
:100260000254C1F3130141F48011C3F3130343F4A7
:10027000801301FB024400FB034E840A970A44EA00
:10028000815447EA8357A4FB076802958D0A05FB52
:1002900007854FEA932C04FB0C542705029D4FEA77
:1002A000065847EA1637B5EB08056EEB070C870EC4
:1002B000920E47EA811742EA8312A7FB0201B6EBCE
:1002C0000B0164EB00042B0D43EA0C335E1844EB86
:1002D0001C50DA465146E7FB0201C5F313044FEA0E
:1002E0000B3343EA14534FEA0432019C43EA0603FA
:1002F000A4F10C040294009CCDE900B400F052F982
:1003000003B0BDE8F08F00200146F9E72DE9F04D7C
:1003100081EA030404F0004B21F0004514464FF03D
:10032000000A23F0004150EA050220D054EA0102FD
:100330001DD0C5F30A570246C5F31303C1F31300DA
:10034000C1F30A5640F4801543F48013A7EB060866
:10035000101BD64608F2FD3873EB050002D308F1F6
:10036000010801E092185B41B8F1000F03DA0020A8
:100370000146BDE8F08D00204FF48011064684460A
:100380000EE0171B73EB050705D3121B63EB050388
:1003900006434CEA010C49084FEA300092185B41D1
:1003A00050EA0107EDD152EA030012D082EA0400BC
:1003B00083EA0501084305D0101BAB4106D2012298
:1003C000002306E000224FF0004302E06FF001023C
:1003D00053101AEB06004CEB085110EB0A0041EBEE
:1003E0000B01BDE8F04D00F0CEB8C10F80EAE0701F
:1003F0000844CA079623002100F097B80EB5C10F34
:1004000080EAE0700844CA07002140F233438DE8D7
:100410000E000A460B4600F0C5F803B000BD00F020
:10042000004220F00040C10DC0F3160040F400006F
:100430007F2901DA00207047962903DCC1F196017B
:10044000C84001E096398840002AF4D04042704705
:1004500070B5C1F30A5201F000450024C1F3130145
:1004600040F2FF3341F480119A4201DA002070BD5E
:1004700040F233439A42A2F2334203DC5242FFF786
:1004800073FE00E090402C43F1D0404270BD00F07C
:10049000004230F000400AD0C10D01F56071C0F398
:1004A000160042EA0151C20840071143704700207C
:1004B0000146704701F0004330B421F0004150EA9A
:1004C000010206D00A0DA2F56072C1F31301002AE1
:1004D00002DC30BC00207047440F44EAC104C10074
:1004E000E01830BC00EBC25000F016B830B50B4637
:1004F000014600202022012409E021FA02F59D4254
:1005000005D303FA02F5491B04FA02F52844151E27
:10051000A2F10102F1DC30BD0029A8BF7047401CE8
:10052000490008BF20F00100704710B4B0FA80FC09
:1005300000FA0CF050EA010404BF10BC704749B146
:10054000CCF1200421FA04F411FA0CF118BF0121B6
:1005500021430843A3EB0C01CB1D4FEA00614FEA96
:10056000102042BF002010BC704700EBC350104465
:100570000029A4BF10BC7047401C490008BF20F0F0
:10058000010010BC704710B5141E73F1000408DAA6
:10059000401C41F1000192185B411A4301D120F047
:1005A000010010BD2DE9F04D92469B4611B1B1FA04
:1005B00081F202E0B0FA80F22032904600F028F991
:1005C00004460F4640EA0A0041EA0B0153465A46E8
:1005D000084313D0114653EA010019D0C8F1400274
:1005E0005046FFF7C1FD05460E4650465946424665
:1005F00000F00EF9084305D0012004E020463946FA
:10060000BDE8F08D0020054346EAE0762C433743F1
:100610000A986305E40AA0EB08000022FD0A44EAF8
:1006200047540A3002D500200146E9E701051019B8
:100630006941DDE9084500196941BDE8F04DA2E7CF
:100640002DE9FE4F804681EA0300C00F0C46009062
:1006500021F0004123F00045B8EB0200A94105D28A
:100660004046214690461C460B46024623F0004079
:10067000104347D0270DC7F30A00C3F30A51029075
:10068000401A019040286BDAC3F3130040F4801B3A
:100690000098924620B10023D2EB030A63EB0B0BC8
:1006A00001985946C0F14002504600F0B1F80646A4
:1006B0000D4650465946019A00F0B9F810EB080073
:1006C0006141002487EA115284EAE7731A4340D05B
:1006D000009A62B3019A012A4FEA075215DC001B07
:1006E00061EB02014FF0004202EA0752CDE90042FD
:1006F000001C41F5801132462B46FFF753FF03B033
:10070000BDE8F08F40462146F9E7001B61EB02018E
:10071000001C41F5801300185B412018A2F500175A
:1007200047EB030140EAD570B6196D4111E06D0841
:100730004FEA360645EAC0754FEA0752001B61EBE7
:100740000201001C41F5801149084FEA30000019F0
:10075000514132462B4603B0BDE8F04FFFF713BFBF
:100760000098012240000023D0EB020263EBE0730B
:10077000009821464FEAE074B8EB000061EB0401F9
:10078000E9E783F000435BE781F0004158E770B58B
:1007900021F0004303430CD0C1F30A550024D5EBEC
:1007A000040564EB0403D617AD1AB34102DB002045
:1007B000014670BD201841EB025170BD30B5041EDA
:1007C00071F1000404DB4FF00044404264EB01018E
:1007D000141E73F1000405DB1C464FF00043524227
:1007E00063EB0403994208BF904230BD064C074DAD
:1007F00006E0E06840F0010394E8070098471034F1
:10080000AC42F6D3FFF798FCF858000818590008D6
:10081000202A04DB203A00FA02F1002070479140C0
:10082000C2F1200320FA03F3194390407047202AB5
:1008300006DBCB17203A41FA02F043EAE07306E008
:1008400041FA02F3D040C2F1200291400843194618
:1008500070472DE9F04D00231A461B1A8A4103DB2D
:1008600000200146BDE8F08DC1F30A52C1F3130127
:1008700041F480154FF0000BD10702D100186D41F3
:10088000521E0027044640F2FF11384601EB620A6F
:100890003E468046024600204FF48011FFF764FC7C
:1008A000C2197141BB1846EB0100B4EB030C75EBA8
:1008B000000C04D3E41A65EB000517460E46241914
:1008C00008F101006D4180463428E3DDF91946EB5B
:1008D0000600091BA84103D24FF0FF32134601E086
:1008E000002213461BEB070046EB0A51BDE8F04D12
:1008F000FFF749BEFFB41E48AA2208230270FF2258
:100900004270F2228270C3709DF8002002719DF83F
:10091000012042719DF8042082719DF80520C2716A
:100920009DF8082002729DF8092042729DF80C2063
:10093000827200249DF80D20C2720C2225462146A9
:100940001B1D06E0465C491C3444E4B22544EDB26C
:10095000C9B28B42F6D88454521C4FF6FF738554AB
:1009600004B00349F0BC0348521C02F005BA000071
:100970004C0000205C04002010B5064C002204212D
:10098000204600F0D2FC20460022BDE8104008219D
:1009900000F0CBBC0010014070B5084D04460122A8
:1009A0000421284600F0C1FC00220821284600F05E
:1009B000BCFC034800680464002070BD00100140C6
:1009C000D003002070B5084D0446002204212846BB
:1009D00000F0ABFC01220821284600F0A6FC0348E9
:1009E00000680464002070BD00100140D0030020A6
:1009F00010B5064C00220121204600F096FC20464E
:100A00000022BDE81040022100F08FBC0010014020
:100A100070B5084D044601221146284600F085FCB9
:100A200000220221284600F080FC03480068C463CD
:100A3000002070BD00100140D003002070B5084DAB
:100A4000044600220121284600F06FFC0122022109
:100A5000284600F06AFC03480068C463002070BDAB
:100A600000100140D0030020FEE70000014800F024
:100A7000E7B90000DC010020014800F0E1B9000006
:100A800098010020704700000B49A1F12000B1F946
:100A9000002003681A440260B1F9022043681A4436
:100AA0004260B1F9042083681A448260B1F90610EB
:100AB000C2681144C16070472000002010B500F0EA
:100AC000DBF804F029FABDE81040FFF7DDBF0000B5
:100AD00010B50421104801F0ADFB04210F4801F0CE
:100AE000A9FB04210E4801F0A5FB04210D4801F0EB
:100AF000A1FB0421084801F0E4FB0421074801F0B0
:100B0000E0FB0421064801F0DCFBBDE810400421B5
:100B1000044801F0D6BB000068020020B0020020AB
:100B2000F80200204003002072B6FEE710B504462C
:100B300042F21070204444F6206188421DD8002CF7
:100B40000CDB204600F044F8204600F069F820460F
:100B5000FFF738FF2046FFF75BFF0CE060420446DA
:100B600000F020F8204600F071F82046FFF714FF4F
:100B70002046FFF763FF002010BD012010BD0000DC
:100B800010B5074C00224FF48051204600F0CDFBF9
:100B9000002261142046BDE8104000F0C6BB0000F2
:100BA0000008014070B5084D044601221103284693
:100BB00000F0BBFB00226914284600F0B6FB034896
:100BC00000688463002070BD00080140D00300204D
:100BD00070B5094D044600224FF48051284600F0BC
:100BE000A4FB01225103284600F09FFB0348006844
:100BF0008463002070BD000000080140D003002085
:100C000010B5064C00220121204600F08EFB204644
:100C10000022BDE81040022100F087BB000C01401B
:100C200070B5084D044601221146284600F07DFBB0
:100C300000220221284600F078FB03480068446344
:100C4000002070BD000C0140D003002070B5084D9D
:100C5000044600220121284600F067FB0122022100
:100C6000284600F062FB034800684463002070BD22
:100C7000000C0140D003002030B50E480468606AC3
:100C800041420D4801800D490A68526A42800C4A6F
:100C900013685B6A5B4283800A4B1D686D6AC5807E
:100CA00000206062096848621168486219684862F9
:100CB00030BD00006802002020000020B0020020AB
:100CC000F80200204003002010B590F82110002207
:100CD000022905D00421816380F82020012010BD65
:100CE00001680B6823F00E030B6001680B6823F0AA
:100CF00001030B6090F84030C46B012101FA03F34B
:100D0000636080F8211080F82020104610BD00009C
:100D10002DE9F05F90F821100024022903D004216E
:100D20008163012485E001680A6822F00E020A60EE
:100D300001680A6822F001020A603F4E3E4FB21578
:100D4000DFF8F4C0DFF8F090DFF8ECA0DFF8E8B0EF
:100D5000DFF8E4E00168783F13011502ACF1640CA0
:100D6000A9F15009AAF13C0AABF1280BAEF1140E1F
:100D70004FF48018B14227D9B9420ED0614512D044
:100D800049451DD0514518D0594518D0714501D15C
:100D9000424615E0294EB14201D1012210E0274E12
:100DA0001436B14201D110220AE0244E2836B14255
:100DB00006D0224A3C32914201D11A4600E02A462E
:100DC0001E49091F0A602BE0B94213D0614517D0B4
:100DD000494522D051451DD059451DD0714501D1FD
:100DE00042461AE0B14202D14FF0807215E0134E34
:100DF000B14201D1012210E0104E1436B14201D1AE
:100E000010220AE00D4E2836B14206D00B4A3C3281
:100E1000914201D11A4600E02A46074980394A60CA
:100E2000012180F82110002180F82010416B01B1D0
:100E300088472046BDE8F09F800002400804024039
:100E40002DE9F05FC16B0A6801680B68046C4FF014
:100E5000040808FA04F8844D844E854FDFF814C264
:100E6000DFF81492DFF814A2DFF814B2DFF814E20E
:100E700018EA020F65D05FEA437862D50A689206E5
:100E800003D40A6822F004020A60DFF8F0814FF40C
:100E90008062016808F1140813011402414524D945
:100EA000A9420DD0B1420FD0B9421AD0614515D038
:100EB000494515D0514501D1120312E0594501D1E0
:100EC00004220EE0714501D140220AE06D4D143537
:100ED000A94206D06B4A2832914201D11A4600E05D
:100EE00022466749091F0A6029E0A94213D0B1428E
:100EF00015D0B94220D061451BD049451BD0514582
:100F000002D14FF4800217E0414502D14FF08062D8
:100F100012E0594501D104220EE0714501D1402271
:100F20000AE0584D1435A94206D0564A283291425B
:100F300001D11A4600E022464B4908394A60C16A8D
:100F400071E04FF0020808FA04F818EA020F70D0B6
:100F50005FEA83786DD50A68920606D40A6822F0A3
:100F60000A020A60012180F82110DFF810814FF495
:100F70000072016808F1140813011402414524D9D4
:100F8000A9420DD0B1420FD0B9421AD0614515D057
:100F9000494515D0514501D1120312E0594501D1FF
:100FA00002220EE0714501D120220AE0354D1435B0
:100FB000A94206D0334A2832914201D11A4600E0B4
:100FC00022462F49091F0A6029E0A94213D0B142E5
:100FD00015D0B94220D061451BD049451BD05145A1
:100FE00002D14FF4001217E0414502D14FF00072D8
:100FF00012E0594501D102220EE0714501D12022B3
:101000000AE0204D1435A94206D01E4A28329142EA
:1010100001D11A4600E02246134908394A600021EE
:1010200080F82010816A00291CD0BDE8F05F0847D5
:10103000FFE70825A540154214D01A0712D50A6803
:1010400022F00E020A6090F84020C36B012101FAE1
:1010500002F25A60816380F82110002180F820108C
:10106000016BE0E7BDE8F09F080002401C00024071
:101070003000024044000240580002406C00024030
:10108000080402401C04024030B560B11A4B0268EB
:1010900014219A4209D2194B1344B3FBF1F1890090
:1010A000016417490AE0012030BD134B5B42134431
:1010B000B3FBF1F1890001640F490839C1630221D2
:1010C00080F82110136843F6F0718B43F0E90114A6
:1010D0002143D0E902452C4321430469214344695B
:1010E0002143846921431943116000214163012296
:1010F00042770177084630BD08040240F8FFFDBF83
:101100000000024070B5044600F014F90546601C6A
:1011100002D004480078044400F00CF9401BA042BF
:10112000FAD370BD380000202DE9F84FDFF8C891E0
:10113000002409F1040A0AF1040B23460F270BF1DE
:10114000040ED1E00125A54006EA0502AA4276D1A7
:10115000DFF8A8C14E68A6EB0C0866452BD00DDC65
:10116000032E34D005DC36B3012E19D0022E2FD138
:101170001BE0112E16D0122E2AD119E0B8F5881FC7
:1011800019D006DCB8F5803F15D0B8F5801F1FD107
:1011900011E0B8F5001F0ED0B8F5041F18D10AE011
:1011A000CB6815E0CB681B1D12E0CB6808330FE05D
:1011B000CB680C330CE08B682BB1012B4FF008038C
:1011C00003D0456104E0042302E0056100E0002350
:1011D000FF2A01D8064601E000F104064FEA840523
:1011E00001D9A5F12005D6F8008007FA05FC28EA08
:1011F0000C0803FA05F548EA0508C6F800804D68B2
:10120000ED0070D53E4DAE6946F00106AE61AD69A8
:1012100024F0030605F0010500953A4D06EB050C98
:10122000DCF80850A607360F07FA06F825EA080585
:10123000DFF8D480404503D14FF0000825E052E0AC
:10124000DFF8C880404502D14FF001081DE0DFF80B
:10125000C080404502D14FF0020816E0DFF8B480AC
:10126000404502D14FF003080FE0DFF8AC80404565
:1012700002D14FF0040808E0DFF8A080404502D119
:101280004FF0050801E04FF0060808FA06F848EAB2
:101290000508CCF808804D68D9F80060ED034D468C
:1012A00001D5164300E096432E604D68DAF80060E1
:1012B000AD03554601D5164300E096432E604D68B8
:1012C000DBF80060ED025D4601D5164300E0964371
:1012D0002E604D68DEF80060AD02754601D51643FC
:1012E00000E096432E60641C0A681646E2407FF4D4
:1012F00029AFBDE8F88F0000000401400000111084
:10130000001002400000014000080140000C0140B4
:10131000001001400014014000180140001C014071
:101320008068084000D0012070470AB10161704711
:101330000904FBE70148806870470000380000207E
:1013400070B5040025D094F83D00002520B984F83C
:101350003C50204600F050F9242084F83D002068DD
:10136000016821F0010101602068016841F4004139
:1013700001602068016821F40041016000F0EEFA8C
:101380004D4A6168914201D84C4900E04C4988427D
:1013900001D2012070BD4B492368B0FBF1F15E68BA
:1013A00026F03F060E435E606368934206D94FF411
:1013B000967359434FF47A73B1FBF3F12368491CD8
:1013C0001E6A26F03F06314319626168914210D8C7
:1013D0004900401EB0FBF1F2521CC2F30B02042A7A
:1013E00001D2042022E0B0FBF1F0401CC0F30B005E
:1013F0001CE0A268F2B301EBC10303EB0116431E2C
:10140000B3FBF6F35B1C43F480431B0549D092B356
:1014100001EBC10202EB0111401EB0FBF1F0401CD8
:10142000C0F30B0040F4804040F400402168CA69DA
:101430004CF6FF739A431043C861D4E90710014387
:101440002068026822F0C00211430160D4E9030160
:1014500001432068826848F2FF339A431143816058
:10146000D4E9050108432168CA6822F0FF0210434D
:10147000C86001E00EE016E02068016841F001015B
:1014800001602564202084F83D00256384F83E50E7
:10149000002070BD01EB4106431EB3FBF6F35B1C5D
:1014A000B3E70120C2E701EB4101401EB0FBF1F0C0
:1014B000401CC0F30B00B7E7A086010080841E002B
:1014C00000093D0040420F002DE9FF4F83B09A46CE
:1014D000DDE9119793460446DDF84080FFF72AFFC7
:1014E000054694F83D0020287FD119230122404968
:1014F0002046009501F02CFD002876D194F83C00A0
:10150000012872D0012084F83C0020680168C907D6
:1015100003D1016841F0010101602068016821F4F4
:1015200000610160212084F83D00402084F83E00E5
:1015300000262664C4F82480A4F82A90608D2085B3
:101540002C48E062CDE9007553465A46204604997E
:1015500001F084FC70B930E02A463946204601F09B
:1015600076FD58B1206C042804D12068016841F44C
:1015700000710160012007B0BDE8F08F606A21684A
:1015800000780861606A401C6062218D491E89B242
:101590002185628D521E628522685369DB435B0799
:1015A0000BD469B100781061606A401C6062208DC4
:1015B000401E2085608D401E6085208D0028CBD187
:1015C0002A463946204601F09DFC0028CAD154F82D
:1015D0003D0B016841F400710160202004F81E09F0
:1015E000E67766770020C6E7FFE70220C3E7000042
:1015F000020010000000FFFFF0B585B00024009449
:101600000194029403940646364F0268364D122028
:101610000321364BBA4248D1AA6942F00802AA61B6
:10162000AA69039102F0080204920A02CDE900209F
:1016300069461846FFF778FD2D48416841F0E061A2
:1016400041F002014160E86940F40010E861E86996
:10165000294D00F4001004902648C5E900048027B5
:10166000C5E902472C616C61AC612846EC61FFF76B
:101670000BFD08B1FFF758FAB5636E621E4D1D48A9
:101680004435143801C5102091C51B4845F8104950
:1016900044306C61AC61EC61FFF7F6FC08B1FFF718
:1016A00043FA75636E6205B0F0BD144CA242FAD1E4
:1016B000AA6942F00802AA61AA69039102F008022D
:1016C00004924FF44062CDE9002069461846FFF7C6
:1016D0002BFDE86940F48000E861E86900F48000CF
:1016E0000490E0E70054004000100240000C01406C
:1016F0000000014080000240980100200058004096
:1017000002488168027811448160704738000020E7
:10171000074810B5016841F010010160032000F096
:1017200075F80F2000F006F800F024F8002010BD36
:101730000020024070B50D4D04464FF47A712878B0
:10174000B1FBF0F00A490968B1FBF0F000F0ECFAE7
:1017500048B9102C07D200222146501E00F036F85E
:1017600000206C6070BD012070BD000038000020BA
:10177000440000200C4808B5816941F001018161F5
:10178000816901F001010091C16941F08051C1619D
:10179000C06900F0805000900448416821F0E06189
:1017A00041F08061416008BD00100240000001402E
:1017B000002809DB00F01F02012191404009800050
:1017C00000F1E020C0F8001170470000F0B40E4BAB
:1017D0001B680C46C3F30223C3F10705042D00D98F
:1017E0000425191D072901D2002300E0DB1E012674
:1017F00006FA05F1491E214099409E40761E16408A
:101800003143F0BC02F0F4BB0CED00E0064900F0FF
:10181000070208684FF6FF03184040EA0220034A17
:1018200010430860704700000CED00E00000FA056E
:101830002DE9F0470F46050061D0434E306800F0B7
:101840000700B84209D2306820F007003843306002
:10185000306800F00700B84251D128683B4C81073E
:1018600012D5400703D5606840F4E06060602878D6
:10187000000703D5606840F4605060606068A96844
:1018800020F0F000084360602878C00728D068681E
:10189000012810D02168022810D0890700292EDAEB
:1018A000616821F0030101436160FFF743FD804659
:1018B00041F288390DE021688903EFE78901EDE7FE
:1018C000FFF738FDA0EB0801494502D90320BDE828
:1018D000F0876068696800F00C00B0EB810FEFD111
:1018E000306800F00700B8420BD9306820F00700DC
:1018F00038433060306800F00700B84201D0012062
:10190000E5E72878400705D56068E96820F4E060DD
:10191000084360602878000706D56068296920F4CC
:10192000605040EAC100606000F038F86168084A21
:10193000C1F30311515CC8400649086006480068BD
:10194000FFF7F8FE0020C2E700200240001002402E
:1019500050580008440000203C000020044805497D
:1019600000684968044AC1F30221515CC8407047CD
:101970004400002000100240605800080448054957
:1019800000684968044AC1F3C221515CC8407047ED
:1019900044000020001002406058000812A185B0E9
:1019A0000FC98DE80F0014A0144A00680490516814
:1019B000134801F00C03042B10D0082B0ED1C1F3F7
:1019C0008343C9031DF803000AD5516804AAC1F373
:1019D0004041515C0A4A5043B0FBF1F005B07047FA
:1019E00008494843FAE7000002030405060708090E
:1019F0000A0B0C0D0E0F1010010200000010024027
:101A000000127A0000093D002DE9F84F040070D063
:101A10002078C04DC00749D06868C0F38100012814
:101A200007D06868C0F38100022809D16868C00344
:101A300006D52868800339D560680028E7D035E0EE
:101A40006068B0F5803F0BD010B1B0F5A02F11D079
:101A5000286820F480302860286820F4802002E084
:101A6000286840F480302860606890B1FFF762FC1D
:101A700006460AE0286840F480202860F0E700BFAE
:101A8000FFF758FC801B642873D828688003F7D5BB
:101A90000CE0FFF74FFC064605E000BFFFF74AFCED
:101AA000801B6428F0D828688003F7D420789A4EE9
:101AB00080074FF001094FF0000839D5686810F031
:101AC0000C0F07D06868C0F38100022809D168684C
:101AD000C00306D42868800714D52069012808D1DE
:101AE00010E02069B0B1C6F80090FFF723FC07466C
:101AF00005E00AE1FFF71EFCC01B0228C4D82868D5
:101B00008007F7D52868616920F0F80040EAC10035
:101B100028600DE0C6F80080FFF70CFC074604E0E3
:101B2000FFF708FCC01B022823D828688007F7D4D9
:101B3000207800072CD57948A169D9B1C0F8009068
:101B4000FFF7F8FB074604E0FFF7F4FBC01B022891
:101B50000FD8686A8007F7D571484FF4FA510068CA
:101B6000B0FBF1F0009000BF0098411E0091FAD246
:101B70000EE080E0C0F80080FFF7DCFB074604E0E1
:101B8000FFF7D8FBC01B022875D8686A8007F7D416
:101B90002078400760D5E8690027C00008D4E869CC
:101BA00040F08050E861E869012700F08050009023
:101BB0005C480168C90513D40168834641F480710B
:101BC0000160FFF7B7FB824606E000BFFFF7B2FBFC
:101BD000A0EB0A0064284ED8DBF80000C005F5D55C
:101BE000E06801280AD008B1052813D0286A20F03F
:101BF00001002862286A20F0040002E0286A40F010
:101C000001002862E06841F2883B98B1FFF792FB3F
:101C100082460BE0286A40F004002862EEE700BF2D
:101C2000FFF788FBA0EB0A0159455AD8286A8007BC
:101C3000F6D50CE0FFF77EFB824605E0FFF77AFB66
:101C4000A0EB0A0159454CD8286A8007F6D41FB189
:101C5000E86920F08050E861E06988B36968C1F301
:101C60008101022944D00228C6F8608004D0FFF721
:101C700061FB044638E034E0FFF75CFB074604E014
:101C8000FFF758FBC01B02282BD828688001F7D427
:101C9000206AB0F5803F05D16868A16820F4003063
:101CA00008436860D4E908010843696821F47411A5
:101CB00008436860C6F86090FFF73CFB044606E006
:101CC00025E000BFFFF736FB001B022809D8286873
:101CD0008001F7D51BE000BFFFF72CFB001B02289B
:101CE00002D90320BDE8F88F28688001F4D40EE003
:101CF0000128F7D06868226A00F48031914204D14B
:101D0000616A00F47010884201D00120EAE70020E7
:101D1000E8E7000000100240000042428004424216
:101D2000440000200070004010B5401EB0F1807FDC
:101D300001D3012010BD4FF0E02460610F21601736
:101D400002F056F90020A06107202061002010BD9C
:101D50007047704710B590F83C20012A22D001222C
:101D600080F83C20CA688C6822F4407222434C6898
:101D700022F4806222430C6822F4006222430C6940
:101D800022F4805222434C6922F400522243C96952
:101D9000002322F480420A4301684A6480F83C3000
:101DA000002010BD022010BD70B590F83C20012A23
:101DB0002CD0012480F83C40022280F83D200368AA
:101DC0005A689D6822F070060A6832435A60104BC8
:101DD00002689A420ED00F4B9A420BD0B2F1804F5C
:101DE00008D00D4B9A4205D00C4B9A4202D00C4BB6
:101DF0009A4204D1496825F080031943916080F824
:101E00003D40002180F83C10084670BD022070BDA6
:101E1000002C014000340140000400400008004054
:101E2000000C004010B5040003D094F83D0010B140
:101E300007E0012010BD002084F83C00204600F09F
:101E40001FF8022084F83D00211D206801F00AFEE1
:101E5000012084F8460084F83E0084F83F0084F8AE
:101E6000400084F8410084F8420084F8430084F87C
:101E7000440084F8450084F83D00002010BD0000B7
:101E800008B5114A01681148914211D1C16941F068
:101E90001001C161C069002200F010000090012112
:101EA0003620FFF793FCBDE808403620FFF780BCE2
:101EB000074A914207D1816941F4005181618069EB
:101EC00000F40050009008BD0010004000100240D7
:101ED0000034014090F83D10012901D001207047E5
:101EE000022180F83D100168CA6842F00102CA6010
:101EF00000680E4988420ED00D4988420BD0B0F1DF
:101F0000804F08D00B49884205D00B49884202D047
:101F10000A49884204D1816801F00701062903D0EB
:101F2000016841F00101016000207047002C014070
:101F3000003401400004004000080040000C004054
:101F400070B5044690F83C00012817D0012584F8AC
:101F50003C50022084F83D002068826822F077021D
:101F600022F47F4282600868502830D00DDC20289F
:101F70004DD005DC98B310283BD148E0022070BD5D
:101F8000302844D0402834D139E0602828D0702847
:101F900006D0B0F5805F2CD0B0F5005F29D10AE003
:101FA000CB68D1E90121206801F0AFFD206881688C
:101FB00041F0770109E0CB68D1E90121206801F007
:101FC000A4FD2068816841F48041816011E0CA6805
:101FD0004968206801F06EFE5021206807E016E095
:101FE000CA684968206801F076FE6021206801F027
:101FF00096FD84F83D50002084F83C0070BDCA680E
:102000004968206801F056FE40212068EFE7226809
:1020100001461046EBE72DE9F0410D46040003D0E0
:1020200094F83D0018B108E00120BDE8F0810020DF
:1020300084F83C00204600F041F8022084F83D007E
:102040002068816844F2070291438160211D206865
:1020500001F008FD226890689169166A2B68AF69E3
:10206000034340F20330814341EA0721A868EF6946
:1020700008434FF6FC418843E96840EA07200143E2
:1020800028692F6A000140EA0730084369686D69D2
:1020900026F0220646EA05152943936022689061DE
:1020A00054F8460B0162012004F81F09E075207600
:1020B000E0762077A0750020B7E7000070B586B005
:1020C0000025009501950295039500685249012469
:1020D000524A534EB0F1804F24D0524DC023A842F3
:1020E00058D1C86940F00200C861C86900F0020018
:1020F0000490886940F0040088618869694600F0AE
:1021000004000490029400931046FFF70DF800229B
:1021100011461D20FFF75AFB5FF01D00FFF748FB3B
:1021200006B070BDC86940F00100C861C86900F020
:1021300001000490886940F004008861886900F01B
:1021400004000490886940F0080088618869694645
:1021500000F0080004904FF40040009002941046F4
:10216000FEF7E2FF0820CDE90005694602943046FB
:10217000FEF7DAFF2C48416821F4407141F0E0613C
:1021800041F480714160002211461C20FFF71EFBC4
:102190001C20C3E7254DA8421CD1C86940F00400AB
:1021A000C861C86900F004000490886940F0080024
:1021B00088618869694600F00800049002940093E1
:1021C0003046FEF7B1FF002211461E20FFF7FEFA4F
:1021D0001E20A3E7164B9842A2D1C86940F0080020
:1021E000C861C86900F008000490886940F00400E4
:1021F00088618869694600F004000490032000901B
:1022000002941046FEF790FF002211463220FFF79D
:10221000DDFA322082E70000001002400008014091
:10222000000C014000040040000001400008004094
:10223000000C004070B590F83E60044690F83F50A6
:1022400090F8423090F84320022021B104290ED0AA
:10225000012E1BD114E0012E18D1012B16D184F8C8
:102260003E0084F8420001220021206820E0012D78
:102270000CD1012A0AD184F83F0084F8430014E00D
:10228000012D03D1012B01D1012A01D0012070BD04
:1022900084F83E0084F83F0084F8420084F843004C
:1022A00001220021206801F023FC01220421206882
:1022B00001F01EFC2068016841F00101016000206E
:1022C00070BD70B590F83E60044690F83F5090F8AD
:1022D000423090F84320022021B1042914D0012E6D
:1022E00025D11EE0012E22D1012B20D184F83E0001
:1022F00084F8420001220021206801F0F9FB2068E7
:10230000C16841F002012FE0012D10D1012A0ED148
:1023100084F83F0084F843000421206801F0E8FBC2
:102320001EE0012D03D1012B01D1012A01D0012092
:1023300070BD84F83E0084F83F0084F8420084F8C1
:10234000430001220021206801F0D2FB0122042178
:10235000206801F0CDFB2068C16841F00201C16036
:102360002068C16841F00401C1602068016841F043
:1023700001010160002070BD704770B5044600681F
:1023800001694FF00005C943890715D4C168C943E5
:10239000890711D4E91E0161012020772068806936
:1023A0008007204602D0FFF7E7FF04E000F0FCF8CA
:1023B000204600F0CDF9257720680169C943490717
:1023C00017D4C168C943490713D46FF004010161F0
:1023D000022020772068806910F4407F204602D0D8
:1023E000FFF7CAFF04E000F0DFF8204600F0B0F984
:1023F000257720680169C943090716D4C168C94314
:10240000090712D46FF008010161042020772068C9
:10241000C0698007204602D0FFF7AEFF04E000F05D
:10242000C3F8204600F094F9257720680169C94374
:10243000C90617D4C168C943C90613D46FF0100187
:102440000161082020772068C06910F4407F204691
:1024500002D0FFF791FF04E000F0A6F8204600F05C
:1024600077F9257720680169C943C90708D1C16890
:10247000C943C90704D1891E0161204600F0C4F98F
:1024800020680169C943090609D4C168C94309061E
:1024900005D46FF0800101612046FFF759FC2068E8
:1024A0000169C943490609D4C168C943490605D42D
:1024B0006FF040010161204600F0AEF9206801692B
:1024C000C94389060BD4C168C943890607D46FF094
:1024D000200101612046BDE87040FFF73ABC70BDA5
:1024E00000B585B000210091019102910391164B36
:1024F0000268164802219A420FD1826942F0040212
:1025000082618069039100F0040004904FF46060E0
:10251000CDE9000169460E4811E00E4B9A4210D1F8
:10252000826942F0100282618069039100F010001C
:1025300004904FF47070CDE9000169460648FEF73B
:10254000F3FD05B000BD0000002C0140001002406A
:1025500000080140003401400010014010B504465D
:1025600090F83C0001280AD0012084F83C0042B1D8
:10257000042A0AD0082A0CD00C2A11D10DE002201E
:1025800010BD206801F0D4FA0AE0206801F000FBD9
:1025900006E0206801F032FB02E0206801F062FBF7
:1025A000002084F83C0010BD704710B5040003D033
:1025B00094F83D0010B107E0012010BD002084F820
:1025C0003C00204600F01EF8022084F83D00211D4A
:1025D000206801F047FA012084F8460084F83E00A4
:1025E00084F83F0084F8400084F8410084F84200F9
:1025F00084F8430084F8440084F8450084F83D00E2
:10260000002010BD704770B5044690F83C000D46A0
:1026100001280AD0012084F83C0042B1042A18D0D5
:10262000082A2AD00C2A4DD139E0022070BD20683A
:1026300001F07EFA2068816941F00801816120681B
:10264000816921F004018161206881692A6911434F
:1026500011E0206801F09CFA2068816941F4006172
:1026600081612068816921F48061816120688169CC
:102670002A6941EA0221816124E0206801F0BEFA62
:102680002068C16941F00801C1612068C16921F079
:102690000401C1612068C1692A69114311E0206801
:1026A00001F0E0FA2068C16941F40061C16120686D
:1026B000C16921F48061C1612068C1692A6941EA68
:1026C0000221C161002084F83C0070BD10B50400F7
:1026D00003D094F83D0010B107E0012010BD0020A8
:1026E00084F83C00204600F01FF8022084F83D00EA
:1026F000211D206801F0B6F9012084F8460084F815
:102700003E0084F83F0084F8400084F8410084F8DB
:10271000420084F8430084F8440084F8450084F8BB
:102720003D00002010BD000008B500680649884241
:1027300008D10648816941F400618161806900F433
:102740000060009008BD0000002C01400010024015
:102750007047000010B50446022249B104290ED08A
:10276000082913D094F84100012816D0012010BD8B
:1027700094F83E000128F9D184F83E200FE094F847
:102780003F000128F2D184F83F2008E094F840008F
:102790000128EBD184F8402001E084F84120012297
:1027A000206801F0A5F913492068134A884201D036
:1027B000904203D1436C43F4004343642068884251
:1027C0000DD090420BD0B0F1804F08D00B49884219
:1027D00005D00B49884202D00A49884204D1816859
:1027E00001F00701062903D0016841F001010160F1
:1027F000002010BD002C01400034014000040040C6
:1028000000080040000C00400249884201D1FEF758
:1028100055B9704788030020704770477047000023
:10282000F8B5026804461068D168536910F00F0FBC
:102830004FF0000553D003F0010601F490773743C1
:102840005FD0C20705D0CA0503D5226C42F0010251
:102850002264420705D5DA0703D0226C42F0020257
:102860002264820705D5DA0703D0226C42F0040205
:102870002264020707D501F02002324303D0226C04
:1028800042F008022264226C002A34D0800604D56B
:10289000880602D5204601F050FA20684069216C74
:1028A000C0F38010090700D430B3204601F02DFAA0
:1028B0002068416949061BD5416921F04001416109
:1028C000A06BA8B158494163A06BFEF721FA00281C
:1028D00011D0A06B416B01B0BDE8F0400847830602
:1028E0000FD58B060DD52046BDE8F84001F025BA7E
:1028F0002046FFF793FFF8BD2046FFF78FFF2564C2
:10290000F8BD266B2023012E52D1C60650D5CE0627
:102910004ED5106850680090506940062AD5A16BCA
:10292000086840680004000CEAD0A68D8642E7D90A
:10293000E0858869202818D0D06820F48070D060A5
:102940002068416921F0010141612068416921F05D
:102950004001416184F83E3025632068C16821F060
:102960001001C160A06BFEF7AFF9A08DE18D401A98
:1029700081B219E0A08DE18D401A81B2E08D00286E
:10298000BED00029BCD0D06820F49070D060206800
:10299000426922F00102426184F83E3025632068DA
:1029A000C26822F01002C2602046FFF736FFF8BD71
:1029B00005062BD50D0629D594F83D002128F6D122
:1029C000A068B0F5805F01D12069B0B1206A411CD8
:1029D0002162216800784860E08C401E0004000CF1
:1029E000E084E4D12068C16821F08001C1602068E2
:1029F000C16841F04001C160F8BD206A0088C0F3A1
:102A000008005060206A801C2062E5E74006F3D58C
:102A10004806F1D5D168204621F04001D16084F804
:102A20003D3000F002FAF8BDFB3C000870B5040030
:102A300004D094F83D00002510B106E0012070BDDF
:102A400084F83C50204600F023F8242084F83D0010
:102A50002068C16821F40051C160204601F0C8F926
:102A60002068016921F4904101612068416921F0E9
:102A70002A0141612068C16841F40051C1602564A8
:102A8000202084F83D0084F83E00002070BD000046
:102A900030B585B000240094019402940394334D22
:102AA0000368334802210322AB4227D1C36943F4B0
:102AB0000033C361C36903F400330493836943F0B3
:102AC0000403836180692B4D00F00400049004200E
:102AD000CDE90001039269462846FEF725FB082050
:102AE000CDE90004694628460294FEF71DFB00224A
:102AF00011462620FEF76AFE262032E01E4DAB422C
:102B000031D1C36943F48023C361C36903F48023D3
:102B10000493836943F0100383618069039200F09A
:102B2000100004902815CDE90001144D694628468F
:102B3000FEF7FAFAE814CDE9000469462846029443
:102B4000FEF7F2FA0E48416821F0300141F0E061F1
:102B500041F010014160002211462720FEF736FEA9
:102B60002720FEF725FE05B030BD000000440040E0
:102B700000100240000801400048004000100140E1
:102B80000000014090F83E30202B0ED159B152B1D7
:102B900090F83C30012B08D0012380F83C30002312
:102BA000036301F081B901207047022070470000E3
:102BB0002DE9F047074601224D494E48FFF7E2FF55
:102BC0004B490122491E4C48FFF7DCFF4B49DFF817
:102BD00020813868A8F1010888424AD1484998F80C
:102BE000020098F8002000260A54401CC0B288F861
:102BF00002005D2A02D03F2835D03AE04446A8F8CA
:102C000004600225894616E0401B801EFDF7F6FB96
:102C100002460B4600203B4901F092FCFDF718FCF0
:102C200001B219F80500B4F90420303801FB002086
:102C30006D1CA080EDB2A0788542E5D399F8010023
:102C40002D2802D1A0884042A080B4F9040032307F
:102C5000652800D3A680B4F9042029492AA001F0F0
:102C6000A3F9A67001E088F8026040212448FDF72E
:102C700092FA31493868884237D198F801002A28F9
:102C800011D02B2812D02D281BD02C2821D02E2853
:102C90002BD1FF23062229A1164800F06DF8BDE8CC
:102CA000F04700F082BE40F6C41006E0FF230B227E
:102CB00024A1104800F060F82548BDE8F047FDF772
:102CC00035BFFF230E2223A10A4800F055F82548FE
:102CD00007E0FF230F2224A1064800F04DF84FF42F
:102CE000FA60BDE8F04700F0D8B9BDE8F087000011
:102CF000290000205C04002018040020004400404B
:102D0000B000002000002440526563656976656468
:102D100020537472696E673A25732C20436F6D706F
:102D20007574656420746F20696E7465726765726E
:102D30003A25640A000000000048004053746F7098
:102D40000A0000004261636B77617264210A00002F
:102D50003CF6FFFF4C656674726F746174696F6E48
:102D60000A00000030F8FFFF5269676874726F74E0
:102D70006174696F6E0A00002DE9F843044690F80B
:102D80003D001F4616460D4620284CD1C5B1BEB1A8
:102D900094F83C00012846D0012084F83C004FF014
:102DA0000008C4F84080212084F83D00FEF7C2FAF4
:102DB000A6848146E684A068B0F5805F03D004E075
:102DC0000120BDE8F883206928B12E465FF0000598
:102DD00084F83C800EE00026FAE78021204601F0CE
:102DE0007EF8A0B9AEB116F8010B21684860E08CFE
:102DF000401EE084E08C4B464FF000020097002814
:102E0000EBD14FF04001204601F069F830B10320CA
:102E1000D7E735F8020BC0F30800E6E7202084F876
:102E20003D000020CDE70220CBE77047FEE70168B8
:102E30004A69D24352050FD46FF480624A6100217F
:102E400040F8301F202242738173026942F004026D
:102E50000261017301207047002070472DE9F8439B
:102E6000044600680D46DDE9089701689846164655
:102E700041F4807101604B4600224FF00111204661
:102E8000009700F065F848B120680068C00502D5D9
:102E90004FF4007020640320BDE8F883216805F03A
:102EA000FE0008613B464A461549204600F084F87A
:102EB00088B920684169806900903A4649462046B1
:102EC00000F0C5F848B1206C042804D120680168DE
:102ED00041F4007101600120DEE7F5B2B8F1010FA5
:102EE00009D02168300A08613A464946204600F078
:102EF000AEF80028E7D1206805610020CCE700008B
:102F00000200010070B516460D4604460DE020464D
:102F1000FFF78DFF08B1012070BD681C05D0FEF7DA
:102F200009FA801BA84207D835B120684069C04320
:102F30004007ECD4002070BD002044F8300F202161
:102F40006173A073216941F0200121612073E2E7E0
:102F50002DE9F0471E4690460D460446C1F307474B
:102F6000DDF8209008E0701C06D0FEF7E3F9A0EB36
:102F70000900B0420FD876B12068012F18D08069BF
:102F800025EA00000004000C14D000214145EAD0DD
:102F90000020BDE8F087002044F8300F2021617345
:102FA000A073216941F02001216120730120F0E725
:102FB0004069E5E70121E9E72DE9F0479A469146A6
:102FC0000E46044600254FF02008C1F3074725E0D0
:102FD00020684069C043400514D42068016841F46A
:102FE0000071016021686FF480604861256384F896
:102FF0003D8084F83E50206C40F00400206484F84A
:103000003C501FE0B9F1FF3F08D0FEF793F9A0EB69
:103010000A0149450CD8B9F1000F09D02068012FE9
:1030200013D0806926EA00000004000C0BD0CFE723
:1030300044F8305F84F80D80A573206940F02000CB
:10304000206125730120BDE8F0874069EAE770B58B
:1030500016460D4604460DE02046FFF7E8FE08B18F
:10306000012070BD681C05D0FEF764F9801BA842E2
:1030700007D835B120684069C0430006ECD4002071
:1030800070BD002044F8300F20216173A0732169C6
:1030900041F0200121612073E2E710B5044642F2BD
:1030A0001070204444F6206188421DD8002C0CDBAF
:1030B0002046FDF78DFD2046FDF7C8FD2046FDF7B3
:1030C00081FC2046FDF7BAFC0CE060420446FDF7A7
:1030D00069FD2046FDF7A4FD2046FDF75DFC204676
:1030E000FDF796FC002010BD012010BD0D4808B56D
:1030F000416941F0010141614069002200F0010095
:10310000009011461020FEF761FB1020FEF750FBE7
:10311000002211461120FEF759FBBDE8084011209E
:10312000FEF746BB001002402DE9F04786B00024B0
:1031300031480094019402940394816941F0200184
:103140008161816901F020010491816941F01001E0
:103150008161816901F010010491816941F00401EC
:103160008161816901F004010491816941F00801E4
:1031700081618069DFF8848000F0080004900022FB
:103180000F214046FEF7D1F8DFF8749000220321AA
:103190004846FEF7CAF8DFF86CA04FF4405700220B
:1031A00039465046FEF7C1F80F2001250226CDE929
:1031B0000005CDE9024669464046FDF7B5FF03200C
:1031C000CDE90005CDE9024669464846FDF7ACFF6A
:1031D0004FF470408DE8310069464846FDF7A4FF82
:1031E00000970396CDE9015469465046FDF79CFFD0
:1031F00006B0BDE8F087000000100240001001405A
:10320000000C0140000801400D4810B50B49016059
:103210000C49416000214FF480428160C0E90312F3
:1032200041618161C1610162FEF78AF8002803D023
:10323000BDE81040FDF778BC10BD00000054004010
:10324000F0000020A08601000D4810B50B49016078
:103250000C49416000214FF480428160C0E90312B3
:1032600041618161C1610162FEF76AF8002803D003
:10327000BDE81040FDF758BC10BD000000580040EC
:1032800044010020A086010030B591B000240F94C5
:103290001C2168461094FCF77EFF202107A8FCF74C
:1032A0007AFF2D482B4901604721C0E9011442F201
:1032B0000F71C0E903148021C0E90541FFF706FA48
:1032C00008B1FDF731FC2448FFF76FF908B1FDF7AD
:1032D0002BFC0F940FA920481094FEF765FD08B150
:1032E000FDF722FC6025CDE9005402940394049478
:1032F00005940422694618480694FFF784F908B13A
:10330000FDF712FC0822694613480094FFF726F9DE
:1033100008B1FDF709FC0C2269460F480095FFF73C
:1033200072F908B1FDF700FC0794089409944FF472
:1033300000500A94CDE90B4007A907480E94FEF708
:1033400009FD08B1FDF7F0FB0348FFF7C9F811B01C
:1033500030BD0000002C01402002002010B58CB0D0
:1033600024216846FCF717FF0024164809944FF003
:1033700080410A94C0E900144FF6FF71C0E9024190
:10338000046184610320CDE900040120CDE9020439
:1033900006210491CDE90540CDE907416946094878
:1033A000FEF739FE08B1FDF7BFFB099409A90548EE
:1033B0000A94FEF7F9FC002801D0FDF7B5FB0CB02C
:1033C00010BD00006802002010B58CB024216846B2
:1033D000FCF7E1FE00241648099414490A94C0E958
:1033E00000144FF6FF71C0E90241046184610320BB
:1033F000CDE900040120CDE9020406210491CDE9C4
:103400000540CDE9074169460948FEF704FE08B1C9
:10341000FDF78AFB099409A905480A94FEF7C4FC44
:10342000002801D0FDF780FB0CB010BD0004004067
:10343000B002002010B58CB024216846FCF7ABFE2A
:1034400000241648099414490A94C0E900144FF660
:10345000FF71C0E90241046184610320CDE90004E9
:103460000120CDE9020406210491CDE90540CDE912
:10347000074169460948FEF7CEFD08B1FDF754FB48
:10348000099409A905480A94FEF78EFC002801D08A
:10349000FDF74AFB0CB010BD00080040F802002008
:1034A00010B58CB024216846FCF775FE0024164840
:1034B000099414490A94C0E900144FF6FF71C0E959
:1034C0000241046184610320CDE900040120CDE9BB
:1034D000020406210491CDE90540CDE90741694682
:1034E0000948FEF798FD08B1FDF71EFB099409A9EC
:1034F00005480A94FEF758FC002801D0FDF714FB9C
:103500000CB010BD000C0040400300201CB500248E
:103510000E4800940C49019401604721C0E9011450
:1035200042F20F718461C160FEF77CFC08B1FDF7C7
:10353000FBFA0094694605480194FEF735FC002823
:1035400001D0FDF7F1FA1CBD0010004088030020F7
:1035500010B596B000240F94109411941294139403
:103560001C2168461494FCF716FE202107A8FCF7DE
:1035700012FE3548334901604721C0E9011442F287
:103580000F71C0E903148021C0E90541FEF74AFC30
:1035900008B1FDF7C9FA4FF480500F900FA92A48DF
:1035A000FEF7CEFC08B1FDF7BFFA2748FFF78EF80B
:1035B00008B1FDF7B9FA139413A923481494FEF740
:1035C000F3FB08B1FDF7B0FA6020CDE900040294E6
:1035D000039404940594002269461B480694FFF75F
:1035E00012F808B1FDF7A0FA042269461648FFF761
:1035F0000AF808B1FDF798FA082269461248FFF761
:1036000002F808B1FDF790FA0C2269460E48FEF761
:10361000FAFF08B1FDF788FA0794089409944FF46B
:1036200000500A94CDE90B4007A907480E94FEF715
:1036300091FB08B1FDF778FA0348FEF751FF16B089
:1036400010BD000000340140D00300200C4810B52C
:103650000A4901604FF4E1314160002181600C2290
:10366000C160C0E904128161C161FFF7DFF9002880
:1036700003D0BDE81040FDF757BA10BD004400402C
:10368000180400200C4810B50A4901604FF4165187
:103690004160002181600C22C160C0E90412816197
:1036A000C161FFF7C3F9002803D0BDE81040FDF762
:1036B0003BBA10BD004800405C040020FEE700005B
:1036C0002DE9F0410C4642F210725142944201DB66
:1036D000144602E08C4200DC0C46334D01280FD02A
:1036E000022825D0314E03283AD004281ED1002CC0
:1036F0004CDB002204213046FDF717FE01224BE08F
:103700002B4E002C06DB012211463046FDF70DFE44
:10371000002205E0002201213046FDF706FE0122CD
:1037200002213046FDF701FE28684463BDE8F081C0
:103730004FF480511F4E4F00002C05DB0022304615
:10374000FDF7F3FD012204E001223046FDF7EDFD17
:10375000002239463046FDF7E8FD28688463E5E736
:10376000002C06DB012211463046FDF7DEFD00226B
:1037700005E0002201213046FDF7D7FD012202219C
:103780003046FDF7D2FD2868C463CFE7012204214B
:103790003046FDF7CAFD002208213046FDF7C5FD81
:1037A00028680464C2E70000D00300200010014034
:1037B000000C014000080140FEE7000070B506461D
:1037C0005FF0000404F1B000C0B200F0C9FB0020BB
:1037D00000F0C6FB102000F0C3FB0025304600F0CF
:1037E000D1FB6D1CEDB2802DF8D3641CE4B2082C23
:1037F000E8D370BD10B56420FDF784FCAE2000F066
:10380000AFFB002000F0ACFB102000F0A9FB402033
:1038100000F0A6FBB02000F0A3FB812000F0A0FB8D
:10382000FF2000F09DFBA12000F09AFBA62000F0F5
:1038300097FBA82000F094FB3F2000F091FBC820EC
:1038400000F08EFBD32000F08BFB002000F088FB03
:10385000D52000F085FB802000F082FBD82000F00E
:103860007FFB052000F07CFBD92000F079FBF120E4
:1038700000F076FBDA2000F073FB122000F070FB02
:10388000DB2000F06DFB302000F06AFB8D2000F0A3
:1038900067FB142000F064FBAF2000F061FBBDE883
:1038A0001040002000F05CBB10B50446B031C8B237
:1038B00000F056FB102040EA141000F051FB04F019
:1038C0000F00BDE8104040F0010000F049BB0000CF
:1038D0002DE9F047002591468A460446012B22D067
:1038E000DFF8BC80022B24D155E02038C7B27E2CF3
:1038F00004D90AF10100002400F0FF0A51462046D5
:10390000FFF7D2FF07EB4700002608EB4007B85D42
:1039100000F038FB761CF6B2062EF8D3A41D6D1C01
:10392000E4B2EDB201E0DFF87C8019F80500002870
:10393000DBD1BDE8F0872038C7B2782C04D90AF172
:103940000100002400F0FF0A51462046FFF7ACFFBB
:103950005FF0000606EB071118F8010000F012FBFB
:10396000761CF6B2082EF5D30AF10100C1B220464A
:10397000FFF79AFF5FF0000606EB071101EB080066
:10398000007A00F0FFFA761CF6B2082EF4D3083461
:103990006D1CE4B2EDB219F805000028CBD1C8E7E0
:1039A0006052000838500008704710B5FDF7E8F87D
:1039B000FDF726F9FDF71CF8FCF7DEFF002010BD2F
:1039C0007047FDF79DBE30B58FB028216846FCF7E3
:1039D000E2FB14210AA8FCF7DEFB01210804CDE973
:1039E00000100024029402250491CDE907504FF401
:1039F000E01009906846FEF707F808B172B6FEE7D6
:103A00000F20CDE90A054FF48060CDE90C4002217A
:103A10000AA80E94FDF70CFF002801D072B6FEE74D
:103A20000FB030BD704700000148FEF7A6BC000093
:103A3000680200200148FEF7A0BC0000B002002090
:103A40000148FEF79ABC0000F80200200148FEF78A
:103A500094BC0000400300200148FEF78EBC00002B
:103A600088030020F0B502681C4B1D4D1D4E1E4FF3
:103A70001E4C4FF0804C984209D0A04207D06045C0
:103A800005D0A84203D0B04201D0B84204D122F000
:103A9000700E4A6842EA0E02984209D0A04207D04E
:103AA000604505D0A84203D0B04201D0B84203D14E
:103AB00022F44075CA682A434D6922F080022A43E5
:103AC00002608A68C2620A688262984201D0A0429B
:103AD00001D10969016301214161F0BD002C014060
:103AE0000004004000080040000C00400034014089
:103AF00010B501F01F030121046A99408C43046250
:103B0000016A9A401143016210BD10B5846842EA0F
:103B1000032224F47F440A432243826010BD82685A
:103B200022F070020A4342F00701816070470000F2
:103B3000F0B5026A22F001020262036A42688469F7
:103B4000124E24F073050C682C4323F002058B6899
:103B50002B430D4DA84201D0B04205D123F00807F8
:103B6000CB683B4323F00403A84201D0B04205D107
:103B70004D6922F4407215438A692A434260846188
:103B8000496841630362F0BD002C014000340140EC
:103B9000F0B5026A22F010020262026A4368846988
:103BA0000D6824F4E64444EA05248D6822F02002DE
:103BB00042EA05120F4D104EA84201D0B04206D184
:103BC000CF6822F0800242EA071222F04002A842A7
:103BD00001D0B04207D14D6923F4406343EA850325
:103BE0008D6943EA850343608461496881630262A9
:103BF000F0BD0000002C014000340140F0B5026A25
:103C000022F480720262026A4368C46922F400727C
:103C100024F073050C68124E2C438D6842EA05228D
:103C20000E4DA84201D0B04206D1CF6822F4006206
:103C300042EA072222F48062A84201D0B04207D1B2
:103C40004D6923F4405343EA05138D6943EA051394
:103C50004360C4614968C1630262F0BD002C014049
:103C60000034014030B5026A22F480520262046AD4
:103C70004268C3690D6823F4E64343EA05238D686F
:103C800024F4005444EA0534084DA84202D0084DFB
:103C9000A84204D14D6922F4804242EA8512426072
:103CA000C36149680164046230BD0000002C01401A
:103CB0000034014010B5036A046A24F00104046270
:103CC000846924F0F00444EA021423F00A020A434F
:103CD0008461026210BD10B5036A23F01003036211
:103CE0008369046A23F4704343EA023224F0A00398
:103CF00043EA01118261016210BD10B5406A0021E2
:103D0000C185C184FEF78AFD10BD0168CA6822F42E
:103D10009072CA6001684A6922F001024A61016B2F
:103D2000012904D10168CA6822F01002CA6020216A
:103D300080F83E1000210163704708B590F83E10EE
:103D4000222901D0022008BD82684FF480539A4294
:103D500001D1016921B1816A9A421BD04AB10AE0BE
:103D60000268816A5268C2F308020A80816A891C6B
:103D700008E0026972B10268526802F07F020A70BC
:103D8000816A491C8162C18D491E0904090CC185E3
:103D900003D019E002685268F1E70168CA6822F0AE
:103DA0002002CA600168CA6822F48072CA60016891
:103DB0004A6922F001024A61202180F83E10016B1D
:103DC000012903D0FEF7F4FE002008BD00210163A5
:103DD0000168CA6822F01002CA6001680A68D20647
:103DE00002D50A6849680091818DFEF716FDEBE760
:103DF00070B5044600680169E26821F4405111433E
:103E000001612169A0680843616908432168CA68A3
:103E100041F20C639A430243CA6020684169A26977
:103E200021F44071114341611E492068884202D14A
:103E3000FDF7A4FD01E0FDF791FD00EBC00101EBF2
:103E40000012606864218000B2FBF0F3B3FBF1F371
:103E50006FF018067343B2FBF0F5B2FBF0F605EB1A
:103E60008305322303EB0515B5FBF1F5B6FBF1F63F
:103E700005F0F00505EB0615B2FBF0F6B2FBF0F02D
:103E8000B0FBF1F06FF01802504306EB800003EB3B
:103E90000010B0FBF1F0216800F00F0028448860AA
:103EA00070BD00000038014081628285C28500211A
:103EB0000164222280F83E2080F83C100168CA6824
:103EC00042F48072CA6001684A6942F001024A61A4
:103ED0000068C16841F02001C160002070472DE9F1
:103EE000F041984617460E460446069D1DE0681CA4
:103EF0001BD02DB1FDF71EFAA0EB0800A84214D983
:103F00002068C16821F4D071C1602068416921F046
:103F100001014161202084F83D0084F83E0000202A
:103F200084F83C000320BDE8F0812068006836EA90
:103F3000000004D00020B842D9D00020F3E70120CF
:103F4000F9E700000148FEF76BBC000018040020F0
:103F50000148FEF765BC00005C040020FEE700009D
:103F600001B584B00121642204A88DE807000B4646
:103F7000002278210248FDF7A7FA05B000BD000035
:103F8000F000002001B584B00121642204A88DE86E
:103F900007000B46402278210248FDF795FA05B04C
:103FA00000BD0000F00000200FB4054B10B503A9C0
:103FB000044A029800F0B8F810BC5DF814FB000049
:103FC000E142000834000020490050EAC12018BF37
:103FD00004204A0D18BF40F0010040F2FF72B2EB1E
:103FE000515F08BF40F00200012808BF052070475C
:103FF0000907090E002804DB00F1E02080F8001416
:10400000704700F00F0000F1E02080F8141D7047A9
:104010002DE9F0414F1E00EBC7010446D1E9000134
:1040200015461E4637F006020DD02A463346FCF7E9
:10403000FBF87F1E04EBC703D3E90023FCF700FB6A
:1040400037F00602F1D1022F25D0042F13D0062F0E
:1040500018BFBDE8F0812A463346FCF7E5F8D4E9FD
:104060000A23FCF7EDFA2A463346FCF7DDF8D4E9DB
:104070000823FCF7E5FA2A463346FCF7D5F8D4E9DD
:104080000623FCF7DDFA2A463346FCF7CDF8D4E9DF
:104090000423FCF7D5FA2A463346FCF7C5F8D4E9E1
:1040A0000223FCF7CDFA2A463346FCF7BDF8D4E9E3
:1040B0000023BDE8F041FCF7C3BA0000002213461C
:1040C00010460149FCF722B90000F03FFCF7B8BAEE
:1040D0000022134610461146FCF718B940F201328F
:1040E00000204FF0E041FCF752BB0000024A0020E4
:1040F0001107FCF74CBB000001FDFFFF02E008C800
:10410000121F08C1002AFAD170477047002001E051
:1041100001C1121F002AFBD170470000014908604D
:1041200070470000480000202DE9FF4F8BB09A46F1
:104130000F460546002606E025280BD052460D996D
:1041400090476D1C761C28780028F5D10FB03046BA
:10415000BDE8F08F0024A0460122604900E004433E
:1041600015F8013F203B02FA03F00842F7D1287806
:104170002E2817D115F8010F44F004042A280ED078
:104180006FF02F022878A0F1300109290AD808EB36
:10419000880102EB410100EB01086D1CF2E757F8C2
:1041A000048B6D1C287869283ED006DC0028CDD011
:1041B00063280BD0642804D136E0732810D075280A
:1041C0004BD052460D999047761C85E017F8040BAA
:1041D0008DF8000000208DF80100E946012003E081
:1041E00057F8049B4FF0FF3061074FF0000401D4F3
:1041F0000AE0641C44450DDA8442FADB19F8041025
:104200000029F6D106E0641C8442FCDB19F8041096
:104210000029F8D1264404E019F8010B52460D9903
:104220009047641EF8D257E001CF4FF00A0B0028E8
:1042300002DA40422D2102E0210504D52B218DF820
:104240002410012103E0E10705D02021F7E70DF15B
:10425000200908910CE00021F9E701CF4FF00A0B8B
:10426000F9E75946FCF742F901F1300209F8012D4E
:104270000028F6D1ADEB090000F1200B600701D456
:104280004FF00108D84502DDA8EB0B0000E000204C
:104290008046002406E009A85246005D0D9990472B
:1042A000641C761C08988442F5DB04E030205246FA
:1042B0000D999047761CB8F10001A8F10108F5DCD2
:1042C00005E019F8010B52460D999047761CBBF199
:1042D0000001ABF1010BF4DC6D1C34E7092801008F
:1042E00013B54FF6FF73012269460248FEF744FDFD
:1042F00000981CBD5C04002070B5354C4FF480550F
:1043000029462046FDF70CF868B90520FCF7FAFEAF
:1043100029462046FDF704F828B929462046FCF72F
:10432000FFFF0128F9D14FF4005529462046FCF73C
:10433000F7FF68B90520FCF7E5FE29462046FCF7A3
:10434000EFFF28B929462046FCF7EAFF0128F9D1FA
:104350004FF4804529462046FCF7E2FF78B9052056
:10436000FCF7D0FE29462046FCF7DAFF38B9FFF704
:104370001CFB29462046FCF7D3FF0128F9D14FF456
:10438000004529462046FCF7CBFF00281FD1052019
:10439000FCF7B8FE29462046FCF7C2FF002816D1DC
:1043A000FFF703FB0B4A1368042B03DC5B1C136051
:1043B000042B01DD01201060107840F6C411FFF7D6
:1043C0007FF929462046FCF7ABFF0128F9D170BDE3
:1043D000000C014030000020FDF79AF9FFF7F3FAD6
:1043E000FEF7A2FEFEF710FFFEF72EFFFEF74CFFD2
:1043F000FEF7B4FFFEF7E8FFFFF752F8FFF7A8F863
:10440000FEF774FEFFF722F9FFF780F8FFF712F8C6
:10441000FFF738F92B480068C16841F02001C160FE
:1044200029480068C16841F02001C160FFF7E2F946
:104430000020FFF7C3F90021022324A20846FFF75A
:1044400047FA012224491F48FEF79CFB224901221A
:10445000491E1D48FEF796FB4FF4FA631B221FA16D
:104460001848FEF789FC00F055F82448FDF732FDA6
:10447000FCF72EFB0122D1032148FCF756FF214F08
:10448000DFF88480DFF88490DFF884A0FFF734FF42
:104490003868FBF7C4FF06B2D8F80000FBF7BFFF8F
:1044A00005B2D9F80000FBF7BAFF04B2DAF8000051
:1044B000FBF7B5FF00B233462A462146FCF71AFA4D
:1044C000E4E700005C0400201804002052656164E9
:1044D000793F212100000000290000204920616D62
:1044E00020726561647920666F7220796F75722021
:1044F000636F6D6D616E640D0A000000880300201B
:10450000000C01401C0000201800002014000020B6
:104510001000002010B500210848FEF71BF9042107
:104520000648FEF717F908210448FEF713F9BDE81D
:1045300010400C210148FEF70DB90000D003002007
:104540002DE9F04D1D460C4698B0174621F000416C
:1045500023F00043002814BF4FF0010C4FF0000C73
:104560000CEB440CFE4A0CEB02064FEA620C66456B
:104570002BD33E0018BF012606EB45061644F94A28
:10458000964222D3F84A53EA070C02D0944205D14E
:1045900048B918B000201146BDE8F08D002808BFCA
:1045A0004FF0000C01D04FF0010C0CEB440212F55F
:1045B000001F0AD8002F14BF4FF0010C4FF0000C61
:1045C0000CEB450212F5001F07D918B03A462B46EE
:1045D0002146BDE8F04DFFF779BD0022DFF88CA33E
:1045E000002CB8BF534526DADFF884C36345A8BF63
:1045F000022220DADFF870C39C451CDCDFF874C3AC
:104600000CEB235CBCF1140F08DDCCF1340627FA67
:1046100006FC0CFA06F6BE420DD108E05FB9CCF1FB
:10462000140623FA06FC0CFA06F69E4203D10CF09F
:104630000102C2F1020251EA000C19D1002D17DA71
:10464000002C18BF022A01D0012A07D00220FFF750
:1046500065FD18B0BDE8F04DFFF730BD0220FFF753
:104660005DFDFFF72BFD18B081F00041BDE8F08D36
:10467000B7F1000C6CD1534525D104F1804212F5FD
:10468000801201BF00280020B74918B008BFBDE85C
:10469000F08DB548884207DC002DA1BF6046294651
:1046A00018B0BDE8F08D07E0281E05DA80F0004163
:1046B00018B06046BDE8F08DAF497944D1E90001FA
:1046C00018B0BDE8F08DDFF8A0C2634525D1002DFC
:1046D0001FDA19B1514512D1D8B909E0002840F0CC
:1046E000EC82A24A214618B062F31E01BDE8F08DAB
:1046F0000020214618B060F31E01BDE8F08D08DAF5
:1047000018B02346BDE8F04D024600206146FBF795
:10471000FDBD18B02146BDE8F08D514518DAB5F160
:10472000804F0DD0A5F1005CBCF1FF5C10D1B4F15D
:10473000000C0DDB18B06146BDE8F04D00F056BC32
:10474000234618B00246BDE8F04D1946FBF76CBD94
:10475000060024F0004C3BD1D9B1514533D1002C97
:1047600006DD002DA1BF0020514618B0BDE8F08D38
:10477000002C01DD002D1BDB002C13DA002D11DBDA
:10478000012A4FF0000014BF78497C4918B0BDE8F9
:10479000F08D022A18BF002C0AD0012A08D1002C63
:1047A00006DA0AE0002CB8BF002D11DA012A04D085
:1047B000002018B00146BDE8F08D18B000204FF081
:1047C0000041BDE8F08DA1F14050B0F17F601AD0FA
:1047D000012000EBE47050EA020421D0624C521E2A
:1047E0004FF0000B104304BF4FF0000B644C6548C2
:1047F00083427CDD644A654893421FDD884217DBB3
:10480000002D25DB37E0002C00DA4AB1022A0CBF6C
:1048100001204FF0FF3018B0BDE8F04DFBF7EEBDC2
:104820000120FFF77BFC18B0BDE8F04DFFF750BC4E
:104830004D4A8A4202DC002D0ADC1CE0814202DA89
:10484000002D18DA04E0484B994220DD002D12DDDE
:104850000220FFF763FCFFF741FC05460E460022ED
:10486000534658462146FBF7DFFC18B066F31E019D
:104870002846BDE8F08D0220FFF750FCFFF736FC1C
:104880000A46214618B062F31E01BDE8F08D0022F1
:1048900030466146FBF775FF80460E466FF0010219
:1048A000FBF775FF4FF05532394BFBF76DFF424672
:1048B0003346FBF7B9FC0022364BFBF765FF824617
:1048C00042463346049110461946FBF7ADFC52466A
:1048D000049BFBF7A9FC8A4600904FF0C0422E4B88
:1048E00040463146FBF7A0FC2C4A2B4B00E027E06A
:1048F000CDE9060151460098FBF796FC82460191EE
:10490000274A284B40463146FBF78EFC5246019B16
:10491000FBF737FF82460B4602460591DDE90601AB
:10492000FBF78EFEDDE90623002688463046FBF7BE
:1049300028FF5246059BFBF727FF024600F07EB991
:104940000020B1F5801F07DA352230466146FBF7BB
:104950001EFF06466FF0340000EB215024E00000FB
:10496000FFFF1F00FFFF0F000000F03F0000F07F7F
:104970000000404301FCFFFF321200000000F0FF86
:104980000000F0BF0000E0410000F043FFFFEF3FF8
:104990005555D53F0000E03F4715F73FFE822B6598
:1049A00044DF5DF80BAE543EA0F2FF300190C1F33E
:1049B000130040F07F6141F040510291FE4988426E
:1049C000D8BF002004DDFD498142C8BF012001DDC0
:1049D0000D9008E000200D900198401C0190029875
:1049E000A0F5801002900299F54878440B910D993A
:1049F00000EBC100D0E900230F9330460A920B99D7
:104A0000FBF7BFFECDE90601DDE90A2130460F9B29
:104A1000FBF716FE02460B460020EA49FBF776FC40
:104A2000059102460B460090DDE90601FBF7FCFB11
:104A30001490E5488A464FF00008784402990068CF
:104A400012904FF0005040EA61010D980F9B01EB6E
:104A5000804000F5002109910A9A1298FBF791FE17
:104A600032460B9BFBF790FE42465346FBF7DCFBBE
:104A70000646029140465146099B129AFBF7D4FB29
:104A8000DDE90623FBF780FE3246029BFBF779FE49
:104A9000059B009AFBF7C8FB0091149A04905346BB
:104AA00010461946FBF7C0FB06460246C7480B46B0
:104AB000029106217844FFF7ABFACDE90510029B7D
:104AC000324610461946FBF7AFFBDDE90532FBF72E
:104AD000ABFB05910646534640461946149AFBF730
:104AE000AFFD009B049AFBF79FFB3246059BFBF74B
:104AF000A7FDCDE905104246534610461946FBF77F
:104B000093FB0022B24B02910A90FBF799FDDDE97D
:104B10000532FBF795FD0E464246AD4B4046FBF78E
:104B200030FE029B0A9AFBF72CFEDDE90532FBF70B
:104B30002BFE424602910A90334610465146FBF73F
:104B400073FBCDE906015346149A02990A98FBF7C4
:104B50006BFB8A4602903346424600990498FBF765
:104B600063FB5346029AFBF76BFD82460B460246F7
:104B70000591DDE90601FBF763FDDDE90623002071
:104B800088460646FBF7FDFD5246059BFBF7FCFDFC
:104B9000824609914FF060428E4B30464146FBF70A
:104BA00043FB049006918C4A8A4B50460999FBF7C7
:104BB0003BFB82460291894A894B30464146FBF7CE
:104BC00033FB5246029BFBF73BFD864B7B440D9A21
:104BD00003EBC203D3E90023FBF732FD0E900791EC
:104BE0000198FBF70BFC0591DDE9061382460E9A4E
:104BF0000498FBF725FD7C4A7A440D9B02EBC30326
:104C0000D3E9002300930292FBF71AFD5246059B5D
:104C1000FBF716FD0026884652463046059BFBF7FB
:104C2000B0FD009B029AFBF7ACFD069B049AFBF7D4
:104C3000A8FD079B0E9AFBF7A7FD024600200B4636
:104C4000029038462946FBF7EFFA824601912B463F
:104C500038461946029AFBF794FD32464346FBF765
:104C6000E3FA5246019BFBF7EBFC07468A463246C5
:104C7000434629460298FBF7D7FA05460E463A46C0
:104C80005346FBF7DDFC594A8846914221DBA8EBED
:104C9000020353EA000210D12A463346FBF771FDA6
:104CA000CDE90401524A534B38465146FBF7C8FC44
:104CB000DDE90423FBF782FD21D20220FFF72EFA63
:104CC000FFF70CFA0A46214618B062F31E01BDE850
:104CD000F08D494B28F000429A4210D3474A08EB26
:104CE000020353EA00027FF4C6AD2A463346FBF7BF
:104CF00048FD3A465346FBF761FD7FF6BCAD002206
:104D0000019228F000403E493E4A01EB2051824288
:104D100023DA481C4FF4801121FA00F040443A4A4B
:104D2000C0F30A517A44394BA1F2FF31CB4020EA5B
:104D30000303C0F3130040F48010C1F11401C84014
:104D400012680190B8F1000FBCBF404201902846A4
:104D50003146FBF716FD05460E462A4633463846D1
:104D60005146FBF76DFC4FF000084246284B404689
:104D70000591FBF759FACDE90601264A264B404634
:104D80000599FBF751FA009102902A4633464046B6
:104D90000599FBF7F6FC3A465346FBF7F5FC1F4A2C
:104DA0001F4BFBF741FA009B029AFBF749FC0746B1
:104DB000884602460B4635E08E9803007AB60B0013
:104DC0007A0E00000000F03FB20E0000E00D00007F
:104DD0000000084009C7EE3FFD033ADCF5015B1413
:104DE000E02F3EBEB80C00007C0C0000000090409C
:104DF000FE822B654715973C00CC904000346F3FF6
:104E000001FCFFFF0000E03FC80B0000FFFF0F00A8
:104E1000432EE63F396CA80C615C20BEEF39FAFEE8
:104E2000422EE63FDDE90601FBF70AFCDDE9062339
:104E300005460E46FBF7A5FC3A464346FBF7A4FCA5
:104E40000F462A463346009010461946FBF7ECF908
:104E5000824602462E4888460B4605217844FFF7D5
:104E6000D7F852464346FBF7DFF92A463346FBF7AD
:104E70008BFC80468A463B4628463146009AFBF723
:104E8000D3F93B46009AFBF7DBFB0691009000222A
:104E90004FF0804340465146FBF773FC0F460C90A1
:104EA0004246534628463146FBF7BEF93B460C9A2C
:104EB000FBF72CFA069B009AFBF763FC2A46334665
:104EC000FBF75FFC0022134BFBF75EFC05460198E5
:104ED0000E4601EB00510815002810DC284631462B
:104EE000019AFBF754FCFFF76FF8042808BFFFF79F
:104EF000FDF828463146019AFBF749FC05460B466A
:104F000018B02A4658462146BDE8F04DFBF78CB94B
:104F1000680A00000000F03F2DE9F0472E4CB4F97C
:104F20000000FBF762FA2D4E3146FBF73FF9FBF725
:104F3000AEFADFF8AC804FF033373A464346FBF722
:104F400073F9DFF8A090DFF8A0A04A465346FBF7BC
:104F5000DDF9FBF7AFFAA4F120052861B4F90200EE
:104F6000FBF743FA3146FBF721F9FBF790FA3A4693
:104F70004346FBF759F94A465346FBF7C7F9FBF797
:104F800099FA6861B4F90400FBF72FFA3146FBF790
:104F90000DF9FBF77CFA3A464346FBF745F94A46DA
:104FA0005346FBF7B3F9FBF785FAA861B4F906009D
:104FB000FBF71BFA3146FBF7F9F8FBF768FA3A46BC
:104FC0004346FBF731F94A465346FBF79FF9FBF797
:104FD00071FAE861BDE8F087200000200000A544D8
:104FE00033F357407B14AE47E17A843F2DE9F0411B
:104FF00006460F46FBF72DFC041E0D4618BF012088
:10500000284320F00040C0F17F6000F1E040C00F75
:105010000ED0301C18BF0120384320F00040C0F1F2
:105020007F6000F1E040C00F04BF0120FFF776F879
:1050300020462946BDE8F081000000000000000085
:10504000002F000000000700070000147F147F14E9
:1050500000242A7F2A12006264081323003649556F
:10506000225000000503000000001C224100000047
:1050700041221C000014083E08140008083E0808DD
:10508000000000A060000008080808080000606038
:105090000000002010080402003E5149453E000077
:1050A000427F4000004261514946002141454B3159
:1050B000001814127F10002745454539003C4A4925
:1050C0004930000171090503003649494936000697
:1050D0004949291E000036360000000056360000FF
:1050E000000814224100001414141414000041227A
:1050F000140800020151090600324959513E007C52
:105100001211127C007F49494936003E414141223B
:10511000007F4141221C007F49494941007F090924
:105120000901003E4149497A007F0808087F0000D4
:10513000417F4100002040413F01007F081422418F
:10514000007F40404040007F020C027F007F040847
:10515000107F003E4141413E007F09090906003EA3
:105160004151215E007F09192946004649494931CC
:105170000001017F0101003F4040403F001F2040EF
:10518000201F003F4038403F0063140814630007AD
:105190000870080700615149454300007F41410004
:1051A00000552A552A55000041417F0000040201A4
:1051B0000204004040404040000001020400002082
:1051C00054545478007F48444438003844444420C0
:1051D00000384444487F00385454541800087E096D
:1051E00001020018A4A4A47C007F08040478000035
:1051F000447D4000004080847D00007F10284400F2
:105200000000417F4000007C04180478007C080402
:10521000047800384444443800FC2424241800183E
:10522000242418FC007C080404080048545454202A
:1052300000043F444020003C4040207C001C2040B3
:10524000201C003C4030403C004428102844001CF6
:10525000A0A0A07C004464544C44141414141414EE
:10526000000000000000000000000000000000003E
:10527000000000F8000000000000003330000000D3
:1052800000100C06100C06000000000000000000DA
:1052900040C07840C0784000043F04043F0404004C
:1052A000007088FC08300000001820FF211E00005C
:1052B000F008F000E018000000211C031E211E0071
:1052C00000F00888700000001E21232419272110F7
:1052D00010160E000000000000000000000000009A
:1052E000000000E018040200000000071820400041
:1052F00000020418E0000000004020180700000031
:10530000404080F0804040000202010F0102020094
:10531000000000F0000000000101011F0101010078
:10532000000000000000000080B0700000000000DD
:105330000000000000000000000101010101010166
:1053400000000000000000000030300000000000FD
:1053500000000000806018040060180601000000D2
:1053600000E010080810E000000F102020100F00CF
:10537000001010F8000000000020203F2020000056
:1053800000700808088870000030282422213000AE
:1053900000300888884830000018202020110E00B6
:1053A0000000C02010F8000000070424243F24005F
:1053B00000F80888880808000019212020110E0034
:1053C00000E0108888180000000F112020110E0046
:1053D00000380808C83808000000003F000000003E
:1053E0000070880808887000001C222121221C00FF
:1053F00000E010080810E0000000312222110F0028
:10540000000000C0C00000000000003030000000BC
:10541000000000800000000000008060000000002C
:105420000000804020100800000102040810200045
:105430004040404040404000040404040404040090
:105440000008102040800000002010080402010025
:10545000007048080808F000000000303601000025
:10546000C030C828E810E0000718272423140B00D8
:105470000000C038E0000000203C23020227382052
:1054800008F8888888700000203F202020110E0036
:10549000C03008080808380007182020201008002D
:1054A00008F808080810E000203F202020100F0016
:1054B00008F88888E8081000203F202023201800E2
:1054C00008F88888E8081000203F2000030000004A
:1054D000C03008080838000007182020221E0200EB
:1054E00008F808000008F808203F210101213F20AA
:1054F000000808F8080800000020203F20200000D5
:1055000000000808F8080800C08080807F000000C4
:1055100008F888C028180800203F200126382000FD
:1055200008F8080000000000203F20202020300064
:1055300008F8F800F8F80800203F003F003F20007E
:1055400008F830C00008F808203F200007183F0086
:10555000E01008080810E0000F10202020100F00B5
:1055600008F808080808F000203F210101010000A8
:10557000E01008080810E0000F18242438504F00ED
:1055800008F8888888887000203F2000030C3020AD
:1055900000708808080838000038202121221C00EB
:1055A000180808F8080818000000203F2000000034
:1055B00008F808000008F808001F202020201F001D
:1055C0000878880000C83808000007380E0100007D
:1055D000F80800F80008F800033C0700073C030047
:1055E000081868808068180820302C03032C3020AD
:1055F0000838C800C83808000000203F200000001C
:1056000010080808C8380800203826212020180073
:10561000000000FE020202000000007F4040400047
:10562000000C30C000000000000000010638C0007F
:1056300000020202FE000000004040407F00000027
:10564000000004020202040000000000000000004C
:10565000000000000000000080808080808080804A
:105660000002020400000000000000000000000032
:1056700000008080808000000019242222223F2028
:1056800008F8008080000000003F112020110E006B
:105690000000008080800000000E112020201100FA
:1056A000000000808088F800000E112020103F20AC
:1056B0000000808080800000001F22222222130030
:1056C000008080F0888888180020203F202000007B
:1056D0000000808080808000006B94949493600030
:1056E00008F8008080800000203F210000203F203B
:1056F00000809898000000000020203F202000003B
:10570000000000809898000000C08080807F00002A
:1057100008F8000080808000203F24022D30200007
:10572000000808F8000000000020203F20200000B2
:105730008080808080808000203F20003F20003FCC
:105740008080008080800000203F210000203F20DA
:105750000000808080800000001F202020201F008B
:10576000808000808000000080FFA12020110E00BA
:105770000000008080808000000E112020A0FF80AB
:10578000808080008080800020203F212000010058
:1057900000008080808080000033242424241900AD
:1057A000008080E0808000000000001F20200000BA
:1057B0008080000000808000001F202020103F20FB
:1057C000808080000080808000010E30080601008B
:1057D00080800080008080800F300C030C300F0030
:1057E00000808000808080000020312E0E3120005B
:1057F000808080000080808080818E70180601008B
:1058000000808080808080000021302C22213000A8
:1058100000000000807C020200000000003F4040C9
:1058200000000000FF00000000000000FF0000007A
:105830000002027C800000000040403F00000000A9
:105840000006010102020404000000000000000044
:105850000000000000000000010203040607080920
:105860000000000001020304000000000000F03FFF
:10587000000000000000F83F0000000000000000F1
:105880000000004003B8E23F0000000000000000FC
:1058900006D0CF43EBFD4C3E033333333333E33F8A
:1058A000FFAB6FDBB66DDB3F4D268F515555D53FB6
:1058B00001411DA96074D13F65DBC9934A86CD3F84
:1058C000EF4E454A287ECA3F3E5555555555C53F72
:1058D00093BDBE166CC166BF2CDE25AF6A56113F64
:1058E000F16BD2C541BDBBBED0A4BE726937663E66
:1058F000000000000000000018590008000000200F
:105900004C000000FC400008645900084C000020D6
:10591000540C00000C4100080000000000000000D2
:105920000000000000000000000000000000000077
:105930000000000000000000000000000000000067
:105940000000000000000000010000000000000056
:105950000100000010000000000000000024F4001E
:045960000000000043
:0400000508000131BD
:00000001FF
