:020000040800F2
:10000000400800204501000871350008E52B000874
:100010007534000819090008153D000800000000AB
:100020000000000000000000000000007937000818
:100030003509000800000000613700087B37000820
:100040005F0100085F0100085F0100085F01000810
:100050005F0100085F0100085F0100085F01000800
:100060005F0100085F0100085F0100085F010008F0
:100070005F0100085F0100085F0100085F010008E0
:100080001D090008290900085F0100085F01000838
:100090005F0100085F0100085F0100085F010008C0
:1000A0005F0100085F0100085F0100085F010008B0
:1000B000E1370008ED370008F93700085F01000854
:1000C0005F0100085F0100085F0100085F01000890
:1000D0005F0100085F010008FD3C0008093D0008C1
:1000E0005F0100085F0100085F0100085F01000870
:1000F0005F0100085F0100085F0100085F01000860
:100100005F0100085F010008053800085F01000872
:100110005F0100085F010008113800085F01000856
:100120005F0100085F0100085F0100085F0100082F
:10013000DFF80CD000F044FB0048004745470008BA
:10014000400800200648804706480047FEE7FEE7D3
:10015000FEE7FEE7FEE7FEE7FEE7FEE7FEE7FEE777
:10016000DD37000831010008202A04DB203A21FA9B
:1001700002F00021704721FA02F3D040C2F12002C0
:100180009140084319467047D2B201E000F8012BB4
:10019000491EFBD270470022F6E710B513460A4607
:1001A00004461946FFF7F0FF204610BD30B480EA40
:1001B000010202F0004530F0004221F0004013D06F
:1001C00090B1C30DD40DC2F31601C0F31600E41AAA
:1001D00041F4000140F400027D34914201D3641CDB
:1001E00000E04900002C02DA30BC002070474FF4D8
:1001F00000000023914201D3891A034340084FEACB
:100200004101F7D151B1914202D14FF0004105E0D7
:1002100002D24FF0010101E06FF0010103EBC45085
:10022000284430BC00F060B92DE9FE4F81EA030498
:1002300004F0004421F0004100944FF0000B23F043
:10024000004350EA01045ED052EA03045BD0C3F3DA
:100250000A54C1F30A552C44A4F2F3340194A0FBD0
:100260000254C1F3130141F48011C3F3130343F4A7
:10027000801301FB024400FB034E840A970A44EA00
:10028000815447EA8357A4FB076802958D0A05FB52
:1002900007854FEA932C04FB0C542705029D4FEA77
:1002A000065847EA1637B5EB08056EEB070C870EC4
:1002B000920E47EA811742EA8312A7FB0201B6EBCE
:1002C0000B0164EB00042B0D43EA0C335E1844EB86
:1002D0001C50DA465146E7FB0201C5F313044FEA0E
:1002E0000B3343EA14534FEA0432019C43EA0603FA
:1002F000A4F10C040294009CCDE900B400F03AF99A
:1003000003B0BDE8F08F00200146F9E72DE9F04D7C
:1003100081EA030404F0004B21F0004514464FF03D
:10032000000A23F0004150EA050220D054EA0102FD
:100330001DD0C5F30A570246C5F31303C1F31300DA
:10034000C1F30A5640F4801543F48013A7EB060866
:10035000101BD64608F2FD3873EB050002D308F1F6
:10036000010801E092185B41B8F1000F03DA0020A8
:100370000146BDE8F08D00204FF48011064684460A
:100380000EE0171B73EB050705D3121B63EB050388
:1003900006434CEA010C49084FEA300092185B41D1
:1003A00050EA0107EDD152EA030012D082EA0400BC
:1003B00083EA0501084305D0101BAB4106D2012298
:1003C000002306E000224FF0004302E06FF001023C
:1003D00053101AEB06004CEB085110EB0A0041EBEE
:1003E0000B01BDE8F04D00F0B6B8C10F80EAE07037
:1003F0000844CA079623002100F07FB800F00042AD
:1004000030F000400AD0C10D01F56071C0F3160054
:1004100042EA0151C20840071143704700200146DB
:10042000704701F0004330B421F0004150EA01026E
:1004300006D00A0DA2F56072C1F31301002A02DC96
:1004400030BC00207047440F44EAC104C100E018EA
:1004500030BC00EBC25000F047B830B50B46014647
:1004600000202022012409E021FA02F59D4205D353
:1004700003FA02F5491B04FA02F52844151EA2F1FD
:100480000102F1DC30BD2DE9F05F05460020924607
:100490009B4688460646814640241BE02846414646
:1004A00047462246FFF760FE53465A46C01A91411E
:1004B00010D311461846224600F094F92D1A67EB26
:1004C00001084F4622460120002100F08BF917EB6E
:1004D00000094E41201EA4F10104DFDC48463146EC
:1004E0002A464346BDE8F09F0029A8BF7047401C3C
:1004F000490008BF20F00100704710B4B0FA80FC3A
:1005000000FA0CF050EA010404BF10BC704749B176
:10051000CCF1200421FA04F411FA0CF118BF0121E6
:1005200021430843A3EB0C01CB1D4FEA00614FEAC6
:10053000102042BF002010BC704700EBC350104495
:100540000029A4BF10BC7047401C490008BF20F020
:10055000010010BC704710B5141E73F1000408DAD6
:10056000401C41F1000192185B411A4301D120F077
:10057000010010BD2DE9F04D92469B4611B1B1FA34
:1005800081F202E0B0FA80F22032904600F02AF9BF
:1005900004460F4640EA0A0041EA0B0153465A4618
:1005A000084313D0114653EA010019D0C8F14002A4
:1005B0005046FFF7D9FD05460E465046594642467D
:1005C00000F010F9084305D0012004E02046394628
:1005D000BDE8F08D0020054346EAE0762C43374322
:1005E0000A986305E40AA0EB08000022FD0A44EA29
:1005F00047540A3002D500200146E9E701051019E9
:100600006941DDE9084500196941BDE8F04DA2E7FF
:100610002DE9FE4F804681EA0300C00F0C46009092
:1006200021F0004123F00045B8EB0200A94105D2BA
:100630004046214690461C460B46024623F00040A9
:10064000104347D0270DC7F30A00C3F30A510290A5
:10065000401A019040286BDAC3F3130040F4801B6A
:100660000098924620B10023D2EB030A63EB0B0BF8
:1006700001985946C0F14002504600F0B3F80646D2
:100680000D4650465946019A00F0BBF810EB0800A1
:100690006141002487EA115284EAE7731A4340D08B
:1006A000009A62B3019A012A4FEA075215DC001B37
:1006B00061EB02014FF0004202EA0752CDE900422D
:1006C000001C41F5801132462B46FFF753FF03B063
:1006D000BDE8F08F40462146F9E7001B61EB0201BF
:1006E000001C41F5801300185B412018A2F500178B
:1006F00047EB030140EAD570B6196D4111E06D0872
:100700004FEA360645EAC0754FEA0752001B61EB17
:100710000201001C41F5801149084FEA3000001920
:10072000514132462B4603B0BDE8F04FFFF713BFEF
:100730000098012240000023D0EB020263EBE0733B
:10074000009821464FEAE074B8EB000061EB040129
:10075000E9E783F000435BE781F0004158E7C1F32C
:100760000A52C1F3130140F2FF3341F480119A425F
:1007700002DA00200146704740F233439A42A2F267
:10078000334202DC5242FFF7EFBC00F02BB800000E
:1007900030B5041E71F1000404DB4FF00044404208
:1007A00064EB0101141E73F1000405DB1C464FF0DD
:1007B0000043524263EB0403994208BF904230BDAC
:1007C000064C074D06E0E06840F0010394E807009E
:1007D00098471034AC42F6D3FFF7AEFC48520008FD
:1007E00068520008202A04DB203A00FA02F10020B7
:1007F00070479140C2F1200320FA03F3194390405F
:100800007047202A06DBCB17203A41FA02F043EA70
:10081000E07306E041FA02F3D040C2F120029140B9
:10082000084319467047000010B5064C0022042109
:10083000204600F0D2FC20460022BDE810400821EE
:1008400000F0CBBC0010014070B5084D04460122F9
:100850000421284600F0C1FC00220821284600F0AF
:10086000BCFC034800680464002070BD0010014017
:100870007003002070B5084D04460022042128466C
:1008800000F0ABFC01220821284600F0A6FC03483A
:1008900000680464002070BD001001407003002057
:1008A00010B5064C00220121204600F096FC20469F
:1008B0000022BDE81040022100F08FBC0010014072
:1008C00070B5084D044601221146284600F085FC0B
:1008D00000220221284600F080FC03480068C4631F
:1008E000002070BD001001407003002070B5084D5D
:1008F000044600220121284600F06FFC012202215B
:10090000284600F06AFC03480068C463002070BDFC
:100910000010014070030020FEE70000014800F0D5
:10092000E7B900007C010020014800F0E1B90000B7
:1009300038010020704700000B49A1F12000B1F9F7
:10094000002003681A440260B1F9022043681A4487
:100950004260B1F9042083681A448260B1F906103C
:10096000C2681144C16070472000002010B500F03B
:10097000DBF803F0E7FFBDE81040FFF7DDBF000044
:1009800010B50421104801F0ADFB04210F4801F01F
:10099000A9FB04210E4801F0A5FB04210D4801F03C
:1009A000A1FB0421084801F0E4FB0421074801F001
:1009B000E0FB0421064801F0DCFBBDE81040042107
:1009C000044801F0D6BB00000802002050020020BD
:1009D00098020020E002002072B6FEE710B504463F
:1009E00042F21070204444F6206188421DD8002C49
:1009F0000CDB204600F044F8204600F069F8204661
:100A0000FFF738FF2046FFF75BFF0CE0604204462B
:100A100000F020F8204600F071F82046FFF714FFA0
:100A20002046FFF763FF002010BD012010BD00002D
:100A300010B5074C00224FF48051204600F0CDFB4A
:100A4000002261142046BDE8104000F0C6BB000043
:100A50000008014070B5084D0446012211032846E4
:100A600000F0BBFB00226914284600F0B6FB0348E7
:100A700000688463002070BD0008014070030020FE
:100A800070B5094D044600224FF48051284600F00D
:100A9000A4FB01225103284600F09FFB0348006895
:100AA0008463002070BD0000000801407003002036
:100AB00010B5064C00220121204600F08EFB204696
:100AC0000022BDE81040022100F087BB000C01406D
:100AD00070B5084D044601221146284600F07DFB02
:100AE00000220221284600F078FB03480068446396
:100AF000002070BD000C01407003002070B5084D4F
:100B0000044600220121284600F067FB0122022151
:100B1000284600F062FB034800684463002070BD73
:100B2000000C01407003002030B50E4801684A6A8D
:100B30000D480E4B02801A68526A524242800C4A9B
:100B40001468646A84800B4C25686D6A6D42C580A8
:100B5000002048621968486211684862216848624A
:100B600030BD0000080200202000002050020020BC
:100B700098020020E002002010B590F82110002219
:100B8000022905D00421816380F82020012010BDB6
:100B900001680B6823F00E030B6001680B6823F0FB
:100BA00001030B6090F84030C46B012101FA03F39C
:100BB000636080F8211080F82020104610BD0000EE
:100BC0002DE9F05F90F821100024022903D00421C0
:100BD0008163012485E001680A6822F00E020A6040
:100BE00001680A6822F001020A603F4E3E4FB215CA
:100BF000DFF8F4C0DFF8F090DFF8ECA0DFF8E8B041
:100C0000DFF8E4E00168783F13011502ACF1640CF1
:100C1000A9F15009AAF13C0AABF1280BAEF1140E70
:100C20004FF48018B14227D9B9420ED0614512D095
:100C300049451DD0514518D0594518D0714501D1AD
:100C4000424615E0294EB14201D1012210E0274E63
:100C50001436B14201D110220AE0244E2836B142A6
:100C600006D0224A3C32914201D11A4600E02A467F
:100C70001E49091F0A602BE0B94213D0614517D005
:100C8000494522D051451DD059451DD0714501D14E
:100C900042461AE0B14202D14FF0807215E0134E85
:100CA000B14201D1012210E0104E1436B14201D1FF
:100CB00010220AE00D4E2836B14206D00B4A3C32D3
:100CC000914201D11A4600E02A46074980394A601C
:100CD000012180F82110002180F82010416B01B122
:100CE00088472046BDE8F09F80000240080402408B
:100CF0002DE9F05FC16B0A6801680B68046C4FF066
:100D0000040808FA04F8844D844E854FDFF814C2B5
:100D1000DFF81492DFF814A2DFF814B2DFF814E25F
:100D200018EA020F65D05FEA437862D50A68920636
:100D300003D40A6822F004020A60DFF8F0814FF45D
:100D40008062016808F1140813011402414524D996
:100D5000A9420DD0B1420FD0B9421AD0614515D089
:100D6000494515D0514501D1120312E0594501D131
:100D700004220EE0714501D140220AE06D4D143588
:100D8000A94206D06B4A2832914201D11A4600E0AE
:100D900022466749091F0A6029E0A94213D0B142DF
:100DA00015D0B94220D061451BD049451BD05145D3
:100DB00002D14FF4800217E0414502D14FF080622A
:100DC00012E0594501D104220EE0714501D14022C3
:100DD0000AE0584D1435A94206D0564A28329142AD
:100DE00001D11A4600E022464B4908394A60C16ADF
:100DF00071E04FF0020808FA04F818EA020F70D008
:100E00005FEA83786DD50A68920606D40A6822F0F4
:100E10000A020A60012180F82110DFF810814FF4E6
:100E20000072016808F1140813011402414524D925
:100E3000A9420DD0B1420FD0B9421AD0614515D0A8
:100E4000494515D0514501D1120312E0594501D150
:100E500002220EE0714501D120220AE0354D143501
:100E6000A94206D0334A2832914201D11A4600E005
:100E700022462F49091F0A6029E0A94213D0B14236
:100E800015D0B94220D061451BD049451BD05145F2
:100E900002D14FF4001217E0414502D14FF0007229
:100EA00012E0594501D102220EE0714501D1202204
:100EB0000AE0204D1435A94206D01E4A283291423C
:100EC00001D11A4600E02246134908394A60002140
:100ED00080F82010816A00291CD0BDE8F05F084727
:100EE000FFE70825A540154214D01A0712D50A6855
:100EF00022F00E020A6090F84020C36B012101FA33
:100F000002F25A60816380F82110002180F82010DD
:100F1000016BE0E7BDE8F09F080002401C000240C2
:100F20003000024044000240580002406C00024081
:100F3000080402401C04024030B560B11A4B02683C
:100F400014219A4209D2194B1344B3FBF1F18900E1
:100F5000016417490AE0012030BD134B5B42134482
:100F6000B3FBF1F1890001640F490839C163022123
:100F700080F82110136843F6F0718B43F0E90114F7
:100F80002143D0E902452C432143046921434469AC
:100F900021438469214319431160002141630122E7
:100FA00042770177084630BD08040240F8FFFDBFD4
:100FB0000000024070B5044600F014F90546601CBC
:100FC00002D004480078044400F00CF9401BA04211
:100FD000FAD370BD300000202DE9F84FDFF8C8913A
:100FE000002409F1040A0AF1040B23460F270BF130
:100FF000040ED1E00125A54006EA0502AA4276D1F9
:10100000DFF8A8C14E68A6EB0C0866452BD00DDCB6
:10101000032E34D005DC36B3012E19D0022E2FD189
:101020001BE0112E16D0122E2AD119E0B8F5881F18
:1010300019D006DCB8F5803F15D0B8F5801F1FD158
:1010400011E0B8F5001F0ED0B8F5041F18D10AE062
:10105000CB6815E0CB681B1D12E0CB6808330FE0AE
:10106000CB680C330CE08B682BB1012B4FF00803DD
:1010700003D0456104E0042302E0056100E00023A1
:10108000FF2A01D8064601E000F104064FEA840574
:1010900001D9A5F12005D6F8008007FA05FC28EA59
:1010A0000C0803FA05F548EA0508C6F800804D6803
:1010B000ED0070D53E4DAE6946F00106AE61AD69FA
:1010C00024F0030605F0010500953A4D06EB050CEA
:1010D000DCF80850A607360F07FA06F825EA0805D7
:1010E000DFF8D480404503D14FF0000825E052E0FE
:1010F000DFF8C880404502D14FF001081DE0DFF85D
:10110000C080404502D14FF0020816E0DFF8B480FD
:10111000404502D14FF003080FE0DFF8AC804045B6
:1011200002D14FF0040808E0DFF8A080404502D16A
:101130004FF0050801E04FF0060808FA06F848EA03
:101140000508CCF808804D68D9F80060ED034D46DD
:1011500001D5164300E096432E604D68DAF8006032
:10116000AD03554601D5164300E096432E604D6809
:10117000DBF80060ED025D4601D5164300E09643C2
:101180002E604D68DEF80060AD02754601D516434D
:1011900000E096432E60641C0A681646E2407FF425
:1011A00029AFBDE8F88F00000004014000001110D5
:1011B000001002400000014000080140000C014006
:1011C000001001400014014000180140001C0140C3
:1011D0008068084000D0012070470AB10161704763
:1011E0000904FBE7014880687047000030000020D8
:1011F00070B5040025D094F83D00002520B984F88E
:101200003C50204600F050F9242084F83D0020682E
:10121000016821F0010101602068016841F400418A
:1012200001602068016821F40041016000F0EEFADD
:101230004D4A6168914201D84C4900E04C498842CE
:1012400001D2012070BD4B492368B0FBF1F15E680B
:1012500026F03F060E435E606368934206D94FF462
:10126000967359434FF47A73B1FBF3F12368491C29
:101270001E6A26F03F06314319626168914210D818
:101280004900401EB0FBF1F2521CC2F30B02042ACB
:1012900001D2042022E0B0FBF1F0401CC0F30B00AF
:1012A0001CE0A268F2B301EBC10303EB0116431E7D
:1012B000B3FBF6F35B1C43F480431B0549D092B3A8
:1012C00001EBC10202EB0111401EB0FBF1F0401C2A
:1012D000C0F30B0040F4804040F400402168CA692C
:1012E0004CF6FF739A431043C861D4E907100143D9
:1012F0002068026822F0C00211430160D4E90301B2
:1013000001432068826848F2FF339A4311438160A9
:10131000D4E9050108432168CA6822F0FF0210439E
:10132000C86001E00EE016E02068016841F00101AC
:1013300001602564202084F83D00256384F83E5038
:10134000002070BD01EB4106431EB3FBF6F35B1CAE
:10135000B3E70120C2E701EB4101401EB0FBF1F011
:10136000401CC0F30B00B7E7A086010080841E007C
:1013700000093D0040420F002DE9FF4F83B09A461F
:10138000DDE9119793460446DDF84080FFF72AFF18
:10139000054694F83D0020287FD1192301224049B9
:1013A0002046009501F0B0FC002876D194F83C006E
:1013B000012872D0012084F83C0020680168C90728
:1013C00003D1016841F0010101602068016821F446
:1013D00000610160212084F83D00402084F83E0037
:1013E00000262664C4F82480A4F82A90608D208505
:1013F0002C48E062CDE9007553465A4620460499D0
:1014000001F008FC70B930E02A463946204601F068
:10141000FAFC58B1206C042804D12068016841F41A
:1014200000710160012007B0BDE8F08F606A21689B
:1014300000780861606A401C6062218D491E89B293
:101440002185628D521E628522685369DB435B07EA
:101450000BD469B100781061606A401C6062208D15
:10146000401E2085608D401E6085208D0028CBD1D8
:101470002A463946204601F021FC0028CAD154F8FA
:101480003D0B016841F400710160202004F81E0941
:10149000E67766770020C6E7FFE70220C3E7000093
:1014A000020010000000FFFFF0B585B0002400949A
:1014B0000194029403940646364F0268364D12207A
:1014C0000321364BBA4248D1AA6942F00802AA6108
:1014D000AA69039102F0080204920A02CDE90020F1
:1014E00069461846FFF778FD2D48416841F0E061F4
:1014F00041F002014160E86940F40010E861E869E8
:10150000294D00F4001004902648C5E90004802706
:10151000C5E902472C616C61AC612846EC61FFF7BC
:101520000BFD08B1FFF758FAB5636E621E4D1D48FA
:101530004435143801C5102091C51B4845F81049A1
:1015400044306C61AC61EC61FFF7F6FC08B1FFF769
:1015500043FA75636E6205B0F0BD144CA242FAD135
:10156000AA6942F00802AA61AA69039102F008027E
:1015700004924FF44062CDE9002069461846FFF717
:101580002BFDE86940F48000E861E86900F4800020
:101590000490E0E70054004000100240000C0140BD
:1015A0000000014080000240380100200058004047
:1015B0000248816802781144816070473000002041
:1015C000074810B5016841F010010160032000F0E8
:1015D00075F80F2000F006F800F024F8002010BD88
:1015E0000020024070B50D4D04464FF47A71287802
:1015F000B1FBF0F00A490968B1FBF0F000F0ECFA39
:1016000048B9102C07D200222146501E00F036F8AF
:1016100000206C6070BD012070BD00003000002013
:101620003C0000200C4808B5816941F0010181614E
:10163000816901F001010091C16941F08051C161EE
:10164000C06900F0805000900448416821F0E061DA
:1016500041F08061416008BD00100240000001407F
:10166000002809DB00F01F020121914040098000A1
:1016700000F1E020C0F8001170470000F0B40E4BFC
:101680001B680C46C3F30223C3F10705042D00D9E0
:101690000425191D072901D2002300E0DB1E0126C5
:1016A00006FA05F1491E214099409E40761E1640DB
:1016B0003143F0BC02F068BB0CED00E0064900F0DD
:1016C000070208684FF6FF03184040EA0220034A69
:1016D00010430860704700000CED00E00000FA05C0
:1016E0002DE9F0470F46050061D0434E306800F009
:1016F0000700B84209D2306820F007003843306054
:10170000306800F00700B84251D128683B4C81078F
:1017100012D5400703D5606840F4E0606060287827
:10172000000703D5606840F4605060606068A96895
:1017300020F0F000084360602878C00728D068686F
:10174000012810D02168022810D0890700292EDA3C
:10175000616821F0030101436160FFF743FD8046AA
:1017600041F288390DE021688903EFE78901EDE74F
:10177000FFF738FDA0EB0801494502D90320BDE879
:10178000F0876068696800F00C00B0EB810FEFD162
:10179000306800F00700B8420BD9306820F007002D
:1017A00038433060306800F00700B84201D00120B3
:1017B000E5E72878400705D56068E96820F4E0602F
:1017C000084360602878000706D56068296920F41E
:1017D000605040EAC100606000F038F86168084A73
:1017E000C1F30311515CC84006490860064800680F
:1017F000FFF7F8FE0020C2E7002002400010024080
:10180000305200083C000020340000200448054904
:1018100000684968044AC1F30221515CC84070471E
:101820003C000020001002404052000804480549D6
:1018300000684968044AC1F3C221515CC84070473E
:101840003C000020001002404052000812A185B068
:101850000FC98DE80F0014A0144A00680490516865
:10186000134801F00C03042B10D0082B0ED1C1F348
:101870008343C9031DF803000AD5516804AAC1F3C4
:101880004041515C0A4A5043B0FBF1F005B070474B
:1018900008494843FAE7000002030405060708095F
:1018A0000A0B0C0D0E0F1010010200000010024078
:1018B00000127A0000093D002DE9F84F040070D0B5
:1018C0002078C04DC00749D06868C0F38100012866
:1018D00007D06868C0F38100022809D16868C00396
:1018E00006D52868800339D560680028E7D035E040
:1018F0006068B0F5803F0BD010B1B0F5A02F11D0CB
:10190000286820F480302860286820F4802002E0D5
:10191000286840F480302860606890B1FFF762FC6E
:1019200006460AE0286840F480202860F0E700BFFF
:10193000FFF758FC801B642873D828688003F7D50C
:101940000CE0FFF74FFC064605E000BFFFF74AFC3E
:10195000801B6428F0D828688003F7D420789A4E3A
:1019600080074FF001094FF0000839D5686810F082
:101970000C0F07D06868C0F38100022809D168689D
:10198000C00306D42868800714D52069012808D12F
:1019900010E02069B0B1C6F80090FFF723FC0746BD
:1019A00005E00AE1FFF71EFCC01B0228C4D8286826
:1019B0008007F7D52868616920F0F80040EAC10087
:1019C00028600DE0C6F80080FFF70CFC074604E035
:1019D000FFF708FCC01B022823D828688007F7D42B
:1019E000207800072CD57948A169D9B1C0F80090BA
:1019F000FFF7F8FB074604E0FFF7F4FBC01B0228E3
:101A00000FD8686A8007F7D571484FF4FA5100681B
:101A1000B0FBF1F0009000BF0098411E0091FAD297
:101A20000EE080E0C0F80080FFF7DCFB074604E032
:101A3000FFF7D8FBC01B022875D8686A8007F7D467
:101A40002078400760D5E8690027C00008D4E8691D
:101A500040F08050E861E869012700F08050009074
:101A60005C480168C90513D40168834641F480715C
:101A70000160FFF7B7FB824606E000BFFFF7B2FB4D
:101A8000A0EB0A0064284ED8DBF80000C005F5D5AD
:101A9000E06801280AD008B1052813D0286A20F090
:101AA00001002862286A20F0040002E0286A40F061
:101AB00001002862E06841F2883B98B1FFF792FB91
:101AC00082460BE0286A40F004002862EEE700BF7F
:101AD000FFF788FBA0EB0A0159455AD8286A80070E
:101AE000F6D50CE0FFF77EFB824605E0FFF77AFBB8
:101AF000A0EB0A0159454CD8286A8007F6D41FB1DB
:101B0000E86920F08050E861E06988B36968C1F352
:101B10008101022944D00228C6F8608004D0FFF772
:101B200061FB044638E034E0FFF75CFB074604E065
:101B3000FFF758FBC01B02282BD828688001F7D478
:101B4000206AB0F5803F05D16868A16820F40030B4
:101B500008436860D4E908010843696821F47411F6
:101B600008436860C6F86090FFF73CFB044606E057
:101B700025E000BFFFF736FB001B022809D82868C4
:101B80008001F7D51BE000BFFFF72CFB001B0228EC
:101B900002D90320BDE8F88F28688001F4D40EE054
:101BA0000128F7D06868226A00F48031914204D19C
:101BB000616A00F47010884201D00120EAE7002039
:101BC000E8E7000000100240000042428004424268
:101BD0003C0000200070004010B5401EB0F1807F36
:101BE00001D3012010BD4FF0E02460610F21601788
:101BF00002F0CAF80020A06107202061002010BD7B
:101C00007047704710B590F83C20012A22D001227D
:101C100080F83C20CA688C6822F4407222434C68E9
:101C200022F4806222430C6822F4006222430C6991
:101C300022F4805222434C6922F400522243C969A3
:101C4000002322F480420A4301684A6480F83C3051
:101C5000002010BD022010BD70B590F83C20012A74
:101C60002CD0012480F83C40022280F83D200368FB
:101C70005A689D6822F070060A6832435A60104B19
:101C800002689A420ED00F4B9A420BD0B2F1804FAD
:101C900008D00D4B9A4205D00C4B9A4202D00C4B07
:101CA0009A4204D1496825F080031943916080F875
:101CB0003D40002180F83C10084670BD022070BDF8
:101CC000002C0140003401400004004000080040A6
:101CD000000C004010B5040003D094F83D0010B192
:101CE00007E0012010BD002084F83C00204600F0F1
:101CF0001FF8022084F83D00211D206801F08EFDB0
:101D0000012084F8460084F83E0084F83F0084F8FF
:101D1000400084F8410084F8420084F8430084F8CD
:101D2000440084F8450084F83D00002010BD000008
:101D300008B5114A01681148914211D1C16941F0B9
:101D40001001C161C069002200F010000090012163
:101D50003620FFF793FCBDE808403620FFF780BC33
:101D6000074A914207D1816941F40051816180693C
:101D700000F40050009008BD001000400010024028
:101D80000034014090F83D10012901D00120704736
:101D9000022180F83D100168CA6842F00102CA6061
:101DA00000680E4988420ED00D4988420BD0B0F130
:101DB000804F08D00B49884205D00B49884202D099
:101DC0000A49884204D1816801F00701062903D03D
:101DD000016841F00101016000207047002C0140C2
:101DE000003401400004004000080040000C0040A6
:101DF00070B5044690F83C00012817D0012584F8FE
:101E00003C50022084F83D002068826822F077026E
:101E100022F47F4282600868502830D00DDC2028F0
:101E20004DD005DC98B310283BD148E0022070BDAE
:101E3000302844D0402834D139E0602828D0702898
:101E400006D0B0F5805F2CD0B0F5005F29D10AE054
:101E5000CB68D1E90121206801F033FD2068816859
:101E600041F0770109E0CB68D1E90121206801F058
:101E700028FD2068816841F48041816011E0CA68D2
:101E80004968206801F0F2FD5021206807E016E063
:101E9000CA684968206801F0FAFD6021206801F0F5
:101EA0001AFD84F83D50002084F83C0070BDCA68DB
:101EB0004968206801F0DAFD40212068EFE72268D8
:101EC00001461046EBE72DE9F0410D46040003D032
:101ED00094F83D0018B108E00120BDE8F081002031
:101EE00084F83C00204600F041F8022084F83D00D0
:101EF0002068816844F2070291438160211D2068B7
:101F000001F08CFC226890689169166A2B68AF69B1
:101F1000034340F20330814341EA0721A868EF6997
:101F200008434FF6FC418843E96840EA0720014333
:101F300028692F6A000140EA0730084369686D6923
:101F400026F0220646EA051529439360226890612F
:101F500054F8460B0162012004F81F09E075207651
:101F6000E0762077A0750020B7E7000070B586B056
:101F700000250095019502950395006852490124BA
:101F8000524A534EB0F1804F24D0524DC023A84244
:101F900058D1C86940F00200C861C86900F0020069
:101FA0000490886940F0040088618869694600F0FF
:101FB00004000490029400931046FFF70DF80022ED
:101FC00011461D20FFF75AFB5FF01D00FFF748FB8D
:101FD00006B070BDC86940F00100C861C86900F072
:101FE00001000490886940F004008861886900F06D
:101FF00004000490886940F0080088618869694697
:1020000000F0080004904FF4004000900294104645
:10201000FEF7E2FF0820CDE900056946029430464C
:10202000FEF7DAFF2C48416821F4407141F0E0618D
:1020300041F480714160002211461C20FFF71EFB15
:102040001C20C3E7254DA8421CD1C86940F00400FC
:10205000C861C86900F004000490886940F0080075
:1020600088618869694600F0080004900294009332
:102070003046FEF7B1FF002211461E20FFF7FEFAA0
:102080001E20A3E7164B9842A2D1C86940F0080071
:10209000C861C86900F008000490886940F0040035
:1020A00088618869694600F004000490032000906C
:1020B00002941046FEF790FF002211463220FFF7EF
:1020C000DDFA322082E700000010024000080140E3
:1020D000000C0140000400400000014000080040E6
:1020E000000C004070B590F83E60044690F83F50F8
:1020F00090F8423090F84320022021B104290ED0FC
:10210000012E1BD114E0012E18D1012B16D184F819
:102110003E0084F8420001220021206820E0012DC9
:102120000CD1012A0AD184F83F0084F8430014E05E
:10213000012D03D1012B01D1012A01D0012070BD55
:1021400084F83E0084F83F0084F8420084F843009D
:1021500001220021206801F0A7FB01220421206850
:1021600001F0A2FB2068016841F00101016000203C
:1021700070BD70B590F83E60044690F83F5090F8FE
:10218000423090F84320022021B1042914D0012EBE
:1021900025D11EE0012E22D1012B20D184F83E0052
:1021A00084F8420001220021206801F07DFB2068B4
:1021B000C16841F002012FE0012D10D1012A0ED19A
:1021C00084F83F0084F843000421206801F06CFB90
:1021D0001EE0012D03D1012B01D1012A01D00120E4
:1021E00070BD84F83E0084F83F0084F8420084F813
:1021F000430001220021206801F056FB0122042146
:10220000206801F051FB2068C16841F00201C16003
:102210002068C16841F00401C1602068016841F094
:1022200001010160002070BD704770B50446006870
:1022300001694FF00005C943890715D4C168C94336
:10224000890711D4E91E0161012020772068806987
:102250008007204602D0FFF7E7FF04E000F0FCF81B
:10226000204600F0CDF9257720680169C943490768
:1022700017D4C168C943490713D46FF00401016141
:10228000022020772068806910F4407F204602D029
:10229000FFF7CAFF04E000F0DFF8204600F0B0F9D5
:1022A000257720680169C943090716D4C168C94365
:1022B000090712D46FF0080101610420207720681B
:1022C000C0698007204602D0FFF7AEFF04E000F0AF
:1022D000C3F8204600F094F9257720680169C943C6
:1022E000C90617D4C168C943C90613D46FF01001D9
:1022F0000161082020772068C06910F4407F2046E3
:1023000002D0FFF791FF04E000F0A6F8204600F0AD
:1023100077F9257720680169C943C90708D1C168E1
:10232000C943C90704D1891E0161204600F0C4F9E0
:1023300020680169C943090609D4C168C94309066F
:1023400005D46FF0800101612046FFF759FC206839
:102350000169C943490609D4C168C943490605D47E
:102360006FF040010161204600F0AEF9206801697C
:10237000C94389060BD4C168C943890607D46FF0E5
:10238000200101612046BDE87040FFF73ABC70BDF6
:1023900000B585B000210091019102910391164B87
:1023A0000268164802219A420FD1826942F0040263
:1023B00082618069039100F0040004904FF4606032
:1023C000CDE9000169460E4811E00E4B9A4210D14A
:1023D000826942F0100282618069039100F010006E
:1023E00004904FF47070CDE9000169460648FEF78D
:1023F000F3FD05B000BD0000002C014000100240BC
:1024000000080140003401400010014010B50446AE
:1024100090F83C0001280AD0012084F83C0042B129
:10242000042A0AD0082A0CD00C2A11D10DE002206F
:1024300010BD206801F058FA0AE0206801F084FA23
:1024400006E0206801F0B6FA02E0206801F0E6FA42
:10245000002084F83C0010BD704710B5040003D084
:1024600094F83D0010B107E0012010BD002084F871
:102470003C00204600F01EF8022084F83D00211D9B
:10248000206801F0CBF9012084F8460084F83E0072
:1024900084F83F0084F8400084F8410084F842004A
:1024A00084F8430084F8440084F8450084F83D0033
:1024B000002010BD704770B5044690F83C000D46F2
:1024C00001280AD0012084F83C0042B1042A18D027
:1024D000082A2AD00C2A4DD139E0022070BD20688C
:1024E00001F002FA2068816941F0080181612068E9
:1024F000816921F004018161206881692A691143A1
:1025000011E0206801F020FA2068816941F400613F
:1025100081612068816921F480618161206881691D
:102520002A6941EA0221816124E0206801F042FA2F
:102530002068C16941F00801C1612068C16921F0CA
:102540000401C1612068C1692A69114311E0206852
:1025500001F064FA2068C16941F40061C16120683A
:10256000C16921F48061C1612068C1692A6941EAB9
:102570000221C161002084F83C0070BD10B5040048
:1025800003D094F83D0010B107E0012010BD0020F9
:1025900084F83C00204600F01FF8022084F83D003B
:1025A000211D206801F03AF9012084F8460084F8E2
:1025B0003E0084F83F0084F8400084F8410084F82D
:1025C000420084F8430084F8440084F8450084F80D
:1025D0003D00002010BD000008B500680649884293
:1025E00008D10648816941F400618161806900F485
:1025F0000060009008BD0000002C01400010024067
:102600007047000010B50446022249B104290ED0DB
:10261000082913D094F84100012816D0012010BDDC
:1026200094F83E000128F9D184F83E200FE094F898
:102630003F000128F2D184F83F2008E094F84000E0
:102640000128EBD184F8402001E084F841200122E8
:10265000206801F029F913492068134A884201D003
:10266000904203D1436C43F40043436420688842A2
:102670000DD090420BD0B0F1804F08D00B4988426A
:1026800005D00B49884202D00A49884204D18168AA
:1026900001F00701062903D0016841F00101016042
:1026A000002010BD002C0140003401400004004017
:1026B00000080040000C00400249884201D1FEF7AA
:1026C00055B97047280300207047704770470000D5
:1026D000F8B5026804461068D168536910F00F0F0E
:1026E0004FF0000554D003F0010601F49077374312
:1026F0005FD0C20705D0CA0503D5226C42F00102A3
:102700002264420705D5DA0703D0226C42F00202A8
:102710002264820705D5DA0703D0226C42F0040256
:102720002264020707D501F02002324303D0226C55
:1027300042F008022264226C002A35D0800604D5BB
:10274000880602D5204601F0D4F920684069216C42
:10275000C0F3801001F008010143204625D001F0AC
:10276000B0F92068416949061BD5416921F0400153
:102770004161A06BA8B158494163A06BFEF720FAF4
:10278000002811D0A06B416B01B0BDE8F0400847B4
:1027900083060ED58B060CD52046BDE8F84001F027
:1027A000A8B92046FFF792FFF8BDFFF78FFF256419
:1027B000F8BD266B2023012E52D1C60650D5CE0679
:1027C0004ED5106850680090506940062AD5A16B1C
:1027D000086840680004000CEAD0A68D8642E7D95C
:1027E000E0858869202818D0D06820F48070D060F7
:1027F0002068416921F0010141612068416921F0AF
:102800004001416184F83E3025632068C16821F0B1
:102810001001C160A06BFEF7AFF9A08DE18D401AE9
:1028200081B219E0A08DE18D401A81B2E08D0028BF
:10283000BED00029BCD0D06820F49070D060206851
:10284000426922F00102426184F83E30256320682B
:10285000C26822F01002C2602046FFF736FFF8BDC2
:1028600005062BD50D0629D594F83D002128F6D173
:10287000A068B0F5805F01D12069B0B1206A411C29
:102880002162216800784860E08C401E0004000C42
:10289000E084E4D12068C16821F08001C160206833
:1028A000C16841F04001C160F8BD206A0088C0F3F2
:1028B00008005060206A801C2062E5E74006F3D5DE
:1028C0004806F1D5D168204621F04001D16084F856
:1028D0003D3000F086F9F8BDB33A000870B5040049
:1028E00004D094F83D00002510B106E0012070BD31
:1028F00084F83C50204600F023F8242084F83D0062
:102900002068C16821F40051C160204601F04CF9F3
:102910002068016921F4904101612068416921F03A
:102920002A0141612068C16841F40051C1602564F9
:10293000202084F83D0084F83E00002070BD000097
:1029400030B585B000240094019402940394334D73
:102950000368334802210322AB4227D1C36943F401
:102960000033C361C36903F400330493836943F004
:102970000403836180692B4D00F00400049004205F
:10298000CDE90001039269462846FEF725FB0820A1
:10299000CDE90004694628460294FEF71DFB00229B
:1029A00011462620FEF76AFE262032E01E4DAB427D
:1029B00031D1C36943F48023C361C36903F4802325
:1029C0000493836943F0100383618069039200F0EC
:1029D000100004902815CDE90001144D69462846E1
:1029E000FEF7FAFAE814CDE9000469462846029495
:1029F000FEF7F2FA0E48416821F0300141F0E06143
:102A000041F010014160002211462720FEF736FEFA
:102A10002720FEF725FE05B030BD00000044004031
:102A20000010024000080140004800400010014032
:102A30000000014090F83E30202B0ED159B152B128
:102A400090F83C30012B08D0012380F83C30002363
:102A5000036301F005B901207047022070470000B0
:102A600010B50446012220492048FFF7E3FF204922
:102A70002068884237D11C4800782A2811D02B289A
:102A800012D02D281BD02C2821D02E282BD1FF236B
:102A9000062218A1154800F04BF8BDE8104000F0E0
:102AA00060BE40F6C41006E0FF230B2213A10F48BE
:102AB00000F03EF81448BDE81040FDF78FBFFF233B
:102AC0000E2212A1094800F033F8144807E0FF2352
:102AD0000F2213A1054800F02BF84FF4FA60BDE86F
:102AE000104000F0B6B910BD28000020FC03002003
:102AF0000048004053746F700A0000004261636B2D
:102B000077617264210A00003CF6FFFF4C65667431
:102B1000726F746174696F6E0A00000030F8FFFF15
:102B20005269676874726F746174696F6E0A00002D
:102B30002DE9F843044690F83D001F4616460D4621
:102B400020284CD1C5B1BEB194F83C00012846D034
:102B5000012084F83C004FF00008C4F84080212098
:102B600084F83D00FEF73EFBA6848146E684A0681B
:102B7000B0F5805F03D004E00120BDE8F883206950
:102B800028B12E465FF0000584F83C800EE0002658
:102B9000FAE78021204601F07EF8A0B9AEB116F820
:102BA000010B21684860E08C401EE084E08C4B46BD
:102BB0004FF0000200970028EBD14FF04001204673
:102BC00001F069F830B10320D7E735F8020BC0F304
:102BD0000800E6E7202084F83D000020CDE7022031
:102BE000CBE77047FEE701684A69D24352050FD42C
:102BF0006FF480624A61002140F8301F2022427346
:102C00008173026942F0040202610173012070477E
:102C1000002070472DE9F843044600680D46DDE9C1
:102C2000089701689846164641F4807101604B464A
:102C300000224FF001112046009700F065F848B1DE
:102C400020680068C00502D54FF40070206403209E
:102C5000BDE8F883216805F0FE0008613B464A465E
:102C60001549204600F084F888B9206841698069D8
:102C700000903A464946204600F0C5F848B1206C1D
:102C8000042804D12068016841F40071016001202A
:102C9000DEE7F5B2B8F1010F09D02168300A08610A
:102CA0003A464946204600F0AEF80028E7D12068B1
:102CB00005610020CCE700000200010070B5164657
:102CC0000D4604460DE02046FFF78DFF08B10120B8
:102CD00070BD681C05D0FEF785FA801BA84207D896
:102CE00035B120684069C0434007ECD4002070BD76
:102CF000002044F8300F20216173A073216941F056
:102D0000200121612073E2E72DE9F0471E4690463D
:102D10000D460446C1F30747DDF8209008E0701C1B
:102D200006D0FEF75FFAA0EB0900B0420FD876B1EB
:102D30002068012F18D0806925EA00000004000CEB
:102D400014D000214145EAD00020BDE8F0870020E2
:102D500044F8300F20216173A073216941F02001F4
:102D6000216120730120F0E74069E5E70121E9E7EF
:102D70002DE9F0479A4691460E46044600254FF04D
:102D80002008C1F3074725E020684069C04340059B
:102D900014D42068016841F40071016021686FF467
:102DA00080604861256384F83D8084F83E50206C43
:102DB00040F00400206484F83C501FE0B9F1FF3F6C
:102DC00008D0FEF70FFAA0EB0A0149450CD8B9F17B
:102DD000000F09D02068012F13D0806926EA000077
:102DE0000004000C0BD0CFE744F8305F84F80D806E
:102DF000A573206940F02000206125730120BDE803
:102E0000F0874069EAE770B516460D4604460DE0C6
:102E10002046FFF7E8FE08B1012070BD681C05D010
:102E2000FEF7E0F9801BA84207D835B12068406959
:102E3000C0430006ECD4002070BD002044F8300FE1
:102E400020216173A073216941F020012161207369
:102E5000E2E710B5044642F21070204444F62061C7
:102E600088421DD8002C0CDB2046FDF709FE2046C9
:102E7000FDF744FE2046FDF7FDFC2046FDF736FD3C
:102E80000CE060420446FDF7E5FD2046FDF720FE1C
:102E90002046FDF7D9FC2046FDF712FD002010BDAD
:102EA000012010BD0D4808B5416941F001014161A3
:102EB0004069002200F00100009011461020FEF74A
:102EC000DDFB1020FEF7CCFB002211461120FEF79F
:102ED000D5FBBDE808401120FEF7C2BB0010024040
:102EE0002DE9F04786B00024314800940194029403
:102EF0000394816941F020018161816901F0200121
:102F00000491816941F010018161816901F0100132
:102F10000491816941F004018161816901F004013A
:102F20000491816941F0080181618069DFF8848042
:102F300000F00800049000220F214046FEF74DF9F2
:102F4000DFF87490002203214846FEF746F9DFF8C7
:102F50006CA04FF44057002239465046FEF73DF929
:102F60000F2001250226CDE90005CDE9024669467C
:102F70004046FEF731F80320CDE90005CDE90246D1
:102F800069464846FEF728F84FF470408DE8310056
:102F900069464846FEF720F800970396CDE90154AC
:102FA00069465046FEF718F806B0BDE8F087000005
:102FB0000010024000100140000C014000080140D8
:102FC0000D4810B50B4901600C49416000214FF4D8
:102FD00080428160C0E9031241618161C161016287
:102FE000FEF706F9002803D0BDE81040FDF7F4BC59
:102FF00010BD00000054004090000020A086010099
:103000000D4810B50B4901600C49416000214FF497
:1030100080428160C0E9031241618161C161016246
:10302000FEF7E6F8002803D0BDE81040FDF7D4BC59
:1030300010BD000000580040E4000020A086010000
:1030400030B591B000240F941C2168461094FDF710
:10305000A2F8202107A8FDF79EF82D482B49016012
:103060004721C0E9011442F20F71C0E90314802125
:10307000C0E90541FFF782FA08B1FDF7ADFC24482D
:10308000FFF7EBF908B1FDF7A7FC0F940FA9204853
:103090001094FEF7E1FD08B1FDF79EFC6025CDE937
:1030A0000054029403940494059404226946184839
:1030B0000694FFF700FA08B1FDF78EFC0822694676
:1030C00013480094FFF7A2F908B1FDF785FC0C2224
:1030D00069460F480095FFF7EEF908B1FDF77CFC53
:1030E0000794089409944FF400500A94CDE90B40DA
:1030F00007A907480E94FEF785FD08B1FDF76CFCA3
:103100000348FFF745F911B030BD0000002C014025
:10311000C001002010B58CB024216846FDF73BF8B3
:103120000024164809944FF080410A94C0E9001425
:103130004FF6FF71C0E90241046184610320CDE9CB
:1031400000040120CDE9020406210491CDE90540E7
:10315000CDE9074169460948FEF7B5FE08B1FDF71C
:103160003BFC099409A905480A94FEF775FD00285F
:1031700001D0FDF731FC0CB010BD000008020020AA
:1031800010B58CB024216846FDF705F800241648D8
:10319000099414490A94C0E900144FF6FF71C0E97C
:1031A0000241046184610320CDE900040120CDE9DE
:1031B000020406210491CDE90540CDE907416946A5
:1031C0000948FEF780FE08B1FDF706FC099409A93D
:1031D00005480A94FEF740FD002801D0FDF7FCFBEE
:1031E0000CB010BD000400405002002010B58CB09F
:1031F00024216846FCF7CFFF00241648099414499F
:103200000A94C0E900144FF6FF71C0E9024104615D
:1032100084610320CDE900040120CDE902040621E8
:103220000491CDE90540CDE9074169460948FEF71B
:103230004AFE08B1FDF7D0FB099409A905480A9494
:10324000FEF70AFD002801D0FDF7C6FB0CB010BD4B
:10325000000800409802002010B58CB02421684678
:10326000FCF799FF00241648099414490A94C0E910
:1032700000144FF6FF71C0E902410461846103202C
:10328000CDE900040120CDE9020406210491CDE935
:103290000540CDE9074169460948FEF714FE08B12B
:1032A000FDF79AFB099409A905480A94FEF7D4FC96
:1032B000002801D0FDF790FB0CB010BD000C0040C1
:1032C000E00200201CB500240E4800940C49019433
:1032D00001604721C0E9011442F20F718461C160AD
:1032E000FEF7F8FC08B1FDF777FB00946946054846
:1032F0000194FEF7B1FC002801D0FDF76DFB1CBD69
:10330000001000402803002010B596B000240F9450
:1033100010941194129413941C2168461494FCF791
:103320003AFF202107A8FCF736FF354833490160F2
:103330004721C0E9011442F20F71C0E90314802152
:10334000C0E90541FEF7C6FC08B1FDF745FB4FF4A7
:1033500080500F900FA92A48FEF74AFD08B1FDF7EB
:103360003BFB2748FFF70AF908B1FDF735FB13943B
:1033700013A923481494FEF76FFC08B1FDF72CFB4A
:103380006020CDE900040294039404940594002283
:1033900069461B480694FFF78EF808B1FDF71CFB41
:1033A000042269461648FFF786F808B1FDF714FBBA
:1033B000082269461248FFF77EF808B1FDF70CFBBA
:1033C0000C2269460E48FFF776F808B1FDF704FBBA
:1033D0000794089409944FF400500A94CDE90B40E7
:1033E00007A907480E94FEF70DFC08B1FDF7F4FAA3
:1033F0000348FEF7CDFF16B010BD000000340140B9
:10340000700300200C4810B50A4901604FF41651B2
:103410004160002181600C22C160C0E90412816119
:10342000C161FFF75BFA002803D0BDE81040FDF74B
:10343000D3BA10BD00440040B80300200C4810B5BA
:103440000A4901604FF416514160002181600C224D
:10345000C160C0E904128161C161FFF73FFA002831
:1034600003D0BDE81040FDF7B7BA10BD00480040DA
:10347000FC030020FEE700002DE9F0410C4642F27B
:1034800010725142944201DB144602E08C4200DC8F
:103490000C46334D01280FD0022825D0314E032889
:1034A0003AD004281ED1002C4CDB002204213046E7
:1034B000FDF793FE01224BE02B4E002C06DB002291
:1034C00001213046FDF789FE012205E00122114667
:1034D0003046FDF782FE002202213046FDF77DFED8
:1034E00028684463BDE8F0814FF480511F4E4F00BF
:1034F000002C05DB00223046FDF76FFE012204E0C0
:1035000001223046FDF769FE002239463046FDF7BC
:1035100064FE28688463E5E7002C06DB00220121B5
:103520003046FDF75AFE012205E0012211463046E1
:10353000FDF753FE002202213046FDF74EFE2868BB
:10354000C463CFE7012204213046FDF746FE002286
:1035500008213046FDF741FE28680464C2E70000F8
:103560007003002000100140000C014000080140E1
:10357000FEE7000070B506465FF0000404F1B000FD
:10358000C0B200F0C9FB002000F0C6FB102000F024
:10359000C3FB0025304600F0D1FB6D1CEDB2802D41
:1035A000F8D3641CE4B2082CE8D370BD10B56420D5
:1035B000FDF700FDAE2000F0AFFB002000F0ACFBFB
:1035C000102000F0A9FB402000F0A6FBB02000F086
:1035D000A3FB812000F0A0FBFF2000F09DFBA120B9
:1035E00000F09AFBA62000F097FBA82000F094FBC7
:1035F0003F2000F091FBC82000F08EFBD32000F0AC
:103600008BFB002000F088FBD52000F085FB80209C
:1036100000F082FBD82000F07FFB052000F07CFB4F
:10362000D92000F079FBF12000F076FBDA2000F0E1
:1036300073FB122000F070FBDB2000F06DFB3020EC
:1036400000F06AFB8D2000F067FB142000F064FBA3
:10365000AF2000F061FBBDE81040002000F05CBB33
:1036600010B50446B031C8B200F056FB102040EA55
:10367000141000F051FB04F00F00BDE8104040F0C2
:10368000010000F049BB00002DE9F04700259146FC
:103690008A460446012B22D0DFF8BC80022B24D1BD
:1036A00055E02038C7B27E2C04D90AF1010000246D
:1036B00000F0FF0A51462046FFF7D2FF07EB470014
:1036C000002608EB4007B85D00F038FB761CF6B228
:1036D000062EF8D3A41D6D1CE4B2EDB201E0DFF8B4
:1036E0007C8019F805000028DBD1BDE8F087203880
:1036F000C7B2782C04D90AF10100002400F0FF0AB7
:1037000051462046FFF7ACFF5FF0000606EB0711BD
:1037100018F8010000F012FB761CF6B2082EF5D363
:103720000AF10100C1B22046FFF79AFF5FF00006E0
:1037300006EB071101EB0800007A00F0FFFA761C97
:10374000F6B2082EF4D308346D1CE4B2EDB219F8C9
:1037500005000028CBD1C8E7404C0008184A0008F3
:10376000704710B5FDF764F9FDF7A2F9FDF798F879
:10377000FDF75AF8002010BD7047FDF719BF30B5AE
:103780008FB028216846FCF706FD14210AA8FCF733
:1037900002FD01210804CDE9001000240294022555
:1037A0000491CDE907504FF4E01009906846FEF708
:1037B00083F808B172B6FEE70F20CDE90A054FF491
:1037C0008060CDE90C4002210AA80E94FDF788FF25
:1037D000002801D072B6FEE70FB030BD7047000080
:1037E0000148FEF722BD0000080200200148FEF754
:1037F0001CBD0000500200200148FEF716BD00006D
:10380000980200200148FEF710BD0000E0020020F1
:103810000148FEF70ABD000028030020F0B5026849
:103820001C4B1D4D1D4E1E4F1E4C4FF0804C9842A0
:1038300009D0A04207D0604505D0A84203D0B042CD
:1038400001D0B84204D122F0700E4A6842EA0E025A
:10385000984209D0A04207D0604505D0A84203D0C5
:10386000B04201D0B84203D122F44075CA682A435D
:103870004D6922F080022A4302608A68C2620A68A7
:103880008262984201D0A04201D1096901630121FD
:103890004161F0BD002C01400004004000080040E0
:1038A000000C00400034014010B501F01F0301215D
:1038B000046A99408C430462016A9A401143016290
:1038C00010BD10B5846842EA032224F47F440A4301
:1038D0002243826010BD826822F070020A4342F0E7
:1038E0000701816070470000F0B5026A22F0010212
:1038F0000262036A42688469124E24F073050C6800
:103900002C4323F002058B682B430D4DA84201D0B8
:10391000B04205D123F00807CB683B4323F00403F2
:10392000A84201D0B04205D14D6922F4407215433E
:103930008A692A4342608461496841630362F0BD39
:10394000002C014000340140F0B5026A22F0100260
:103950000262026A436884690D6824F4E64444EA1A
:1039600005248D6822F0200242EA05120F4D104E08
:10397000A84201D0B04206D1CF6822F0800242EACC
:10398000071222F04002A84201D0B04207D14D698F
:1039900023F4406343EA85038D6943EA850343606A
:1039A0008461496881630262F0BD0000002C01401F
:1039B00000340140F0B5026A22F480720262026AA9
:1039C0004368C46922F4007224F073050C68124E37
:1039D0002C438D6842EA05220E4DA84201D0B04228
:1039E00006D1CF6822F4006242EA072222F4806204
:1039F000A84201D0B04207D14D6923F4405343EAB5
:103A000005138D6943EA05134360C4614968C163C6
:103A10000262F0BD002C01400034014030B5026A62
:103A200022F480520262046A4268C3690D6823F47A
:103A3000E64343EA05238D6824F4005444EA053440
:103A4000084DA84202D0084DA84204D14D6922F485
:103A5000804242EA85124260C3614968016404629F
:103A600030BD0000002C01400034014010B5036A55
:103A7000046A24F001040462846924F0F00444EA36
:103A8000021423F00A020A438461026210BD10B5D9
:103A9000036A23F0100303628369046A23F470430A
:103AA00043EA023224F0A00343EA01118261016279
:103AB00010BD10B5406A0021C185C184FEF706FE25
:103AC00010BD0168CA6822F49072CA6001684A6930
:103AD00022F001024A61016B012904D10168CA6820
:103AE00022F01002CA60202180F83E1000210163FC
:103AF000704708B590F83E10222901D0022008BD79
:103B000082684FF480539A4201D1016921B1816AE0
:103B10009A421BD04AB10AE00268816A5268C2F335
:103B200008020A80816A891C08E0026972B1026891
:103B3000526802F07F020A70816A491C8162C18D5D
:103B4000491E0904090CC18503D019E002685268B6
:103B5000F1E70168CA6822F02002CA600168CA68F9
:103B600022F48072CA6001684A6922F001024A6147
:103B7000202180F83E10016B012903D0FEF770FF71
:103B8000002008BD002101630168CA6822F010020C
:103B9000CA6001680A68D20602D50A6849680091BD
:103BA000818DFEF792FDEBE770B504460068016970
:103BB000E26821F44051114301612169A068084382
:103BC000616908432168CA6841F20C639A43024361
:103BD000CA6020684169A26921F4407111434161C2
:103BE0001E492068884202D1FDF720FE01E0FDF762
:103BF0000DFE00EBC00101EB001260686421800043
:103C0000B2FBF0F3B3FBF1F36FF018067343B2FBB2
:103C1000F0F5B2FBF0F605EB8305322303EB051557
:103C2000B5FBF1F5B6FBF1F605F0F00505EB061571
:103C3000B2FBF0F6B2FBF0F0B0FBF1F06FF018025F
:103C4000504306EB800003EB0010B0FBF1F021685D
:103C500000F00F002844886070BD0000003801406B
:103C600081628285C28500210164222280F83E2083
:103C700080F83C100168CA6842F48072CA6001682A
:103C80004A6942F001024A610068C16841F02001BE
:103C9000C160002070472DE9F041984617460E4656
:103CA0000446069D1DE0681C1BD02DB1FDF79AFA55
:103CB000A0EB0800A84214D92068C16821F4D07193
:103CC000C1602068416921F001014161202084F830
:103CD0003D0084F83E00002084F83C000320BDE84D
:103CE000F0812068006836EA000004D00020B84265
:103CF000D9D00020F3E70120F9E700000148FEF7E2
:103D0000E7BC0000B80300200148FEF7E1BC00005A
:103D1000FC030020FEE7000001B584B0012164220D
:103D200004A88DE807000B46002278210248FDF721
:103D300023FB05B000BD00009000002001B584B059
:103D40000121642204A88DE807000B464022782157
:103D50000248FDF711FB05B000BD000090000020F7
:103D60000FB4084B10B504A902AA039800F0DEF8BE
:103D7000044602A9002000F070FC204610BC5DF84B
:103D800014FB00005B4600080907090E002804DB4D
:103D900000F1E02080F80014704700F00F0000F1FF
:103DA000E02080F8141D704702E008C8121F08C107
:103DB000002AFAD170477047002001E001C1121FAC
:103DC000002AFBD1704700002DE9FF5FDDE90220EA
:103DD000010DDDF838B0024318D044F61050A1F2BE
:103DE000FF3141430D140F98012820D0A5EB0B00A3
:103DF000401C5FEA000A4FF00004474EDFF81C91B8
:103E0000A046504616D5CAF1000728E00F980124B5
:103E100043A2012808D0002100980F9BC0E900218F
:103E2000C0E90243BDE8FF9F6FEA0B01F4E7CBF165
:103E30000000DEE7074612E0F80707D022463346C7
:103E400040464946FCF7F0F980468946224633460B
:103E500010461946FCF7E8F904460E467F10002F7D
:103E6000EAD1DDE90201BAF1000F42464B4602DA1F
:103E7000FCF7DAF901E0FCF749FA04460E460022A5
:103E8000284BFCF785FC03D84FF0FF30014607E0D4
:103E90000022254B20463146FCF7BAFBFCF75FFCBD
:103EA000102409E0002C0ADB0A220023FCF7EBFABD
:103EB000019B30321A55641E50EA0102F2D1641C93
:103EC000019AC4F1110314440F9A012A03D001226C
:103ED00008430DD10AE0084304D000204FF0110B35
:103EE0000F9080E7A3EB0B056D1E0DE05B4504DD35
:103EF0004FF0000205F1010504E003DA4FF0000283
:103F0000A5F10105002AECD000980F99C0E9023113
:103F1000C0E9004586E70000000024400000F03FB3
:103F2000300000000000F0430000E03F2DE9FF4FAB
:103F300095B09B468946064600250FE2252877D195
:103F400000242746F84A0121059400E0044316F8AE
:103F5000013F203B01FA03F01042F7D130782A28C4
:103F600011D06FF02F033078A0F13002092A16D853
:103F7000059A44F0020402EB820203EB4202104471
:103F8000761C0590EFE759F8042B0592002A03DA16
:103F9000504244F40054059044F00204761C3078FA
:103FA0002E2816D116F8010F44F004042A280DD04B
:103FB0006FF02F023078A0F13003092B09D807EBFE
:103FC000870302EB4303C718761CF3E759F8047B19
:103FD000761C30786C280FD006DC4C2817D0682867
:103FE0000DD06A2814D104E0742810D07A280FD19B
:103FF0000DE044F400140AE044F4801401E044F4B9
:1040000040147278824202D104F58014761C761C2A
:10401000307866280BD013DC582877D009DC0028CC
:1040200075D04528F6D04628F4D047281AD19DE10E
:1040300018E0632835D0642879D0652812D195E13D
:10404000702873D008DC6728F1D069286FD06E28FB
:104050000DD06F2806D1B5E073282CD0752875D007
:10406000782874D05A46179990476D1C75E1C4F3AF
:104070000250022809D003280DD0D9F800100428D6
:104080000DD00D6009F1040967E1D9F80010EA17B5
:10409000C1E90052F6E7D9F800100D80F2E70D7083
:1040A000F0E719F8041B8DF8001000208DF80100CE
:1040B000EA46012003E059F804AB4FF0FF306107F6
:1040C0004FF0000102D40DE008F101018846B94229
:1040D0000FDA8045F8DB1AF808100029F4D108E05F
:1040E00008F1010188468142FADB1AF8081000291C
:1040F000F6D105985B46A0EB080721463846179A8B
:1041000000F094FA284400EB080507E04DE029E1AF
:104110000DE01AF8010B5A4617999047B8F10108BB
:10412000F7D25B4621463846179A13E142E00A224D
:104130000092C4F302524FF0000A022A08D059F844
:1041400004CB032A4FEAEC710AD00DE029E02AE003
:1041500009F1070121F00702F2E802C1914609E0E6
:104160000FFA8CFC4FEAEC71042A03D14FFA8CFC55
:104170004FEAEC71002907DA0A460021DCF1000C55
:1041800061EB02012D2202E0220504D52B228DF8DD
:104190000420012203E0E20701D02022F7E7904645
:1041A00059E00A2102E010220DE010214FF0000A30
:1041B00000910BE010224FF0000A44F0040408279D
:1041C000009203E008224FF0000A0092C4F302526A
:1041D000022A05D059F804CB0021032A08D009E0AF
:1041E00009F1070121F00702F2E802C1914605E05A
:1041F0001FFA8CFC042A01D10CF0FF0C4FF00008D0
:10420000220728D5702806D0009B83F0100353EABC
:104210000A0305D00EE040228DF80420012208E0B8
:104220005CEA010206D030228DF804208DF80500EA
:1042300002229046009B83F0080353EA0A030AD146
:104240005CEA010201D1620705D530228DF8042015
:104250004FF001087F1E582804D034A003900EA808
:1042600002900DE036A0F9E753466046009AFCF74D
:104270000AF984460398825C0298401E02900270FC
:104280005CEA0100F0D1029806A9081A00F1200AA0
:10429000600702D524F4803400E00127574502DD91
:1042A000A7EB0A0000E0002000EB0A01009005984F
:1042B0004144401A0590E00306D45B462146179A14
:1042C000059800F0B3F90544002706E001A85A4616
:1042D000C05D179990476D1C7F1C4745F6DBE003D6
:1042E0000CD55B462146179A059800F09FF90544C6
:1042F00004E030205A46179990476D1C0099481EDB
:1043000000900029F5DC08E0029802995A460078EE
:10431000491C0291179990476D1CBAF10001AAF14E
:10432000010AF1DC65E10000092801003031323377
:1043300034353637383961626364656600000000E1
:1043400030313233343536373839414243444546CB
:104350000000000000F058F90544761C3078002871
:104360007FF4ECAD19B02846BDE8F08F620700D4A9
:10437000062709F1070222F0070CFCE80223E146B8
:1043800003F000485FEA080C02D00FF2702C0DE039
:104390005FEA045C02D50FF2682C07E05FEAC47C98
:1043A00002D00FF2602C01E0AFF2700C4FF0FF383A
:1043B00023F00043CDF850C065280CD006DC45281A
:1043C00009D046281DD047283DD13DE0662818D0A9
:1043D00067287ED138E00021112F01DB112000E099
:1043E000781CCDE9000106A90EA8FFF7EDFCDDE978
:1043F0000F010E9A03910021009207F1010A049126
:104400004DE04FF000400097CDE9011006A90EA83D
:10441000FFF7DAFCDDE90F0203920E9B11990022EF
:10442000DDF80CA00093049211B9791C00EB010A8D
:10443000B7EB0A0004D4C0F1FF3007F1010A049081
:10444000AAEB0700019044E0012F00DA01270021C8
:10445000112F01DD112000E03846CDE9000106A949
:104460000EA8FFF7B1FCDDE90F010E9A03910021C0
:1044700004910092BA4621070CD40399514500DA01
:104480008A46BAF1010F05DD009AAAF10101515CDB
:10449000302908D0B84202DA10F1040F06DA0121FF
:1044A000CDE9011015E0AAF10101E9E7002805DCDA
:1044B000049901440491AAEB000102E0411C51451A
:1044C00000DD8A460499401A401C01904FF00040DC
:1044D0000290200704D40198504501DBCDF80480F8
:1044E00000208DF84F0002980DF14F07B0F1004FFA
:1044F00025D02B200E9002984FF0020800280CDAED
:10450000404202902D200E9007E00A210298FBF70E
:10451000A4FF3031029007F8011DB8F10001A8F1A5
:104520000108F2DC02980028EFD1791E0E9808707D
:10453000307800F0200040F0450007F8020D12A886
:10454000C01B00F107081498007800B1012000EBAF
:104550000A01019801EBE07105984144401A401EA0
:104560000590E00306D45B462146179A059800F0B3
:104570005DF805441498007818B15A461799904789
:104580006D1CE00324D55B462146179A059800F080
:104590004DF805441CE00498002807DBDDE9030121
:1045A000884203DD0098405C179901E0179930209C
:1045B0005A469047049805F10105401C0490019863
:1045C000401E019004D12E205A46179990476D1C29
:1045D000BAF10001AAF1010ADDDC05E017F8010BD0
:1045E0005A46179990476D1CB8F10001A8F10108CF
:1045F000F4DC5B462146179A0598ABE62D000000D7
:104600002B000000200000002DE9F04104460025A9
:104610001E461746880404D405E039462020B047DA
:104620006D1C641EF9D52846BDE8F0812DE9F041E6
:10463000044600251E469046C80301D5302700E0F9
:104640002027880404D505E041463846B0476D1C54
:10465000641EF9D52846BDE8F0810A68531C0B603A
:104660001070704770B5354C4FF480552946204680
:10467000FCF7AEFD68B90520FCF79CFC29462046F6
:10468000FCF7A6FD28B929462046FCF7A1FD012824
:10469000F9D14FF4005529462046FCF799FD68B939
:1046A0000520FCF787FC29462046FCF791FD28B938
:1046B00029462046FCF78CFD0128F9D14FF48045AE
:1046C00029462046FCF784FD78B90520FCF772FCEA
:1046D00029462046FCF77CFD38B9FFF742F8294609
:1046E0002046FCF775FD0128F9D14FF40045294615
:1046F0002046FCF76DFD00281FD10520FCF75AFC71
:1047000029462046FCF764FD002816D1FFF729F85A
:104710000B4A1368042B03DC5B1C1360042B01DDC4
:1047200001201060107840F6C411FEF7A5FE29465E
:104730002046FCF74DFD0128F9D170BD000C014069
:104740002C000020FCF73CFFFFF719F8FEF7C8FB30
:10475000FEF736FCFEF754FCFEF772FCFEF7DAFCBF
:10476000FEF70EFDFEF778FDFEF7CEFDFEF79AFB95
:10477000FEF748FEFEF7A6FDFEF738FDFEF75EFEEB
:104780004B480068C16841F02001C160FEF70EFF90
:104790000020FEF7EFFE0021022346A20846FEF7A6
:1047A00073FF012246494248FEF744F94FF4FA6389
:1047B0001B2244A13E48FEF7BBF900F0ADF8494882
:1047C000FDF7E0FAFCF7DCF80122D1034648FCF7DC
:1047D00004FD464C464D474E474F00BFFFF742FF92
:1047E0002068FBF70BFE02460B4644A14548FFF745
:1047F000B7FA2868FBF702FE024642480B463FA183
:104800001430FFF7ADFA3068FBF7F8FD02463D487B
:104810000B463AA12830FFF7A3FA3868FBF7EEFD04
:10482000024638480B4635A13C30FFF799FAFF2382
:10483000042235A11E48FEF77BF9FF2305223149EA
:104840001B48FEF775F9FF23042230A11848FEF734
:104850006FF92C49FF23052214311548FEF768F93A
:10486000FF2304222AA11248FEF762F92549FF23FB
:10487000052228310E48FEF75BF9FF23042225A10B
:104880000B48FEF755F91F49FF2305223C31084824
:10489000FEF74EF9FF23032211A10548FEF748F960
:1048A0000223184A05210020FEF7EEFE96E70000DD
:1048B000FC03002052656164793F21210000000063
:1048C000280000204920616D2072656164792066AE
:1048D0006F7220796F757220636F6D6D616E640DFC
:1048E0000A00000028030020000C014010000020F6
:1048F00014000020180000201C000020252E326625
:10490000000000004000002045313A0045323A00E6
:1049100045333A0045343A0010B500210848FDF708
:1049200071FE04210648FDF76DFE08210448FDF7DD
:1049300069FEBDE810400C210148FDF763BE000090
:10494000700300202DE9F0472E4CB4F90000FBF76E
:104950004CFD2D4E3146FBF729FCFBF74FFDDFF8F0
:10496000AC804FF033373A464346FBF75DFCDFF847
:10497000A090DFF8A0A04A465346FBF7C7FCFBF720
:1049800050FDA4F120052861B4F90200FBF72DFDCC
:104990003146FBF70BFCFBF731FD3A464346FBF78C
:1049A00043FC4A465346FBF7B1FCFBF73AFD68610E
:1049B000B4F90400FBF719FD3146FBF7F7FBFBF7F1
:1049C0001DFD3A464346FBF72FFC4A465346FBF78C
:1049D0009DFCFBF726FDA861B4F90600FBF705FD79
:1049E0003146FBF7E3FBFBF709FD3A464346FBF78D
:1049F0001BFC4A465346FBF789FCFBF712FDE861B6
:104A0000BDE8F087200000200000A54433F35740A4
:104A10007B14AE47E17A843F0000000000000000F4
:104A2000002F000000000700070000147F147F140F
:104A300000242A7F2A120062640813230036495595
:104A4000225000000503000000001C22410000006D
:104A500041221C000014083E08140008083E080803
:104A6000000000A06000000808080808000060605E
:104A70000000002010080402003E5149453E00009D
:104A8000427F4000004261514946002141454B317F
:104A9000001814127F10002745454539003C4A494B
:104AA00049300001710905030036494949360006BD
:104AB0004949291E00003636000000005636000025
:104AC00000081422410000141414141400004122A0
:104AD000140800020151090600324959513E007C78
:104AE0001211127C007F49494936003E4141412262
:104AF000007F4141221C007F49494941007F09094B
:104B00000901003E4149497A007F0808087F0000FA
:104B1000417F4100002040413F01007F08142241B5
:104B2000007F40404040007F020C027F007F04086D
:104B3000107F003E4141413E007F09090906003EC9
:104B40004151215E007F09192946004649494931F2
:104B50000001017F0101003F4040403F001F204015
:104B6000201F003F4038403F0063140814630007D3
:104B70000870080700615149454300007F4141002A
:104B800000552A552A55000041417F0000040201CA
:104B900002040040404040400000010204000020A8
:104BA00054545478007F48444438003844444420E6
:104BB00000384444487F00385454541800087E0993
:104BC00001020018A4A4A47C007F0804047800005B
:104BD000447D4000004080847D00007F1028440018
:104BE0000000417F4000007C04180478007C080429
:104BF000047800384444443800FC24242418001865
:104C0000242418FC007C0804040800485454542050
:104C100000043F444020003C4040207C001C2040D9
:104C2000201C003C4030403C004428102844001C1C
:104C3000A0A0A07C004464544C4414141414141414
:104C40000000000000000000000000000000000064
:104C5000000000F8000000000000003330000000F9
:104C600000100C06100C0600000000000000000000
:104C700040C07840C0784000043F04043F04040072
:104C8000007088FC08300000001820FF211E000082
:104C9000F008F000E018000000211C031E211E0097
:104CA00000F00888700000001E212324192721101D
:104CB00010160E00000000000000000000000000C0
:104CC000000000E018040200000000071820400067
:104CD00000020418E0000000004020180700000057
:104CE000404080F0804040000202010F01020200BB
:104CF000000000F0000000000101011F010101009F
:104D0000000000000000000080B070000000000003
:104D1000000000000000000000010101010101018C
:104D20000000000000000000003030000000000023
:104D300000000000806018040060180601000000F8
:104D400000E010080810E000000F102020100F00F5
:104D5000001010F8000000000020203F202000007C
:104D600000700808088870000030282422213000D4
:104D700000300888884830000018202020110E00DC
:104D80000000C02010F8000000070424243F240085
:104D900000F80888880808000019212020110E005A
:104DA00000E0108888180000000F112020110E006C
:104DB00000380808C83808000000003F0000000064
:104DC0000070880808887000001C222121221C0025
:104DD00000E010080810E0000000312222110F004E
:104DE000000000C0C00000000000003030000000E3
:104DF0000000008000000000000080600000000053
:104E0000000080402010080000010204081020006B
:104E100040404040404040000404040404040400B6
:104E2000000810204080000000201008040201004B
:104E3000007048080808F00000000030360100004B
:104E4000C030C828E810E0000718272423140B00FE
:104E50000000C038E0000000203C23020227382078
:104E600008F8888888700000203F202020110E005C
:104E7000C030080808083800071820202010080053
:104E800008F808080810E000203F202020100F003C
:104E900008F88888E8081000203F20202320180008
:104EA00008F88888E8081000203F20000300000070
:104EB000C03008080838000007182020221E020011
:104EC00008F808000008F808203F210101213F20D0
:104ED000000808F8080800000020203F20200000FB
:104EE00000000808F8080800C08080807F000000EB
:104EF00008F888C028180800203F20012638200024
:104F000008F8080000000000203F2020202030008A
:104F100008F8F800F8F80800203F003F003F2000A4
:104F200008F830C00008F808203F200007183F00AC
:104F3000E01008080810E0000F10202020100F00DB
:104F400008F808080808F000203F210101010000CE
:104F5000E01008080810E0000F18242438504F0013
:104F600008F8888888887000203F2000030C3020D3
:104F700000708808080838000038202121221C0011
:104F8000180808F8080818000000203F200000005A
:104F900008F808000008F808001F202020201F0043
:104FA0000878880000C83808000007380E010000A3
:104FB000F80800F80008F800033C0700073C03006D
:104FC000081868808068180820302C03032C3020D3
:104FD0000838C800C83808000000203F2000000042
:104FE00010080808C838080020382621202018009A
:104FF000000000FE020202000000007F404040006E
:10500000000C30C000000000000000010638C000A5
:1050100000020202FE000000004040407F0000004D
:105020000000040202020400000000000000000072
:105030000000000000000000808080808080808070
:105040000002020400000000000000000000000058
:1050500000008080808000000019242222223F204E
:1050600008F8008080000000003F112020110E0091
:105070000000008080800000000E11202020110020
:10508000000000808088F800000E112020103F20D2
:105090000000808080800000001F22222222130056
:1050A000008080F0888888180020203F20200000A1
:1050B0000000808080808000006B94949493600056
:1050C00008F8008080800000203F210000203F2061
:1050D00000809898000000000020203F2020000061
:1050E000000000809898000000C08080807F000051
:1050F00008F8000080808000203F24022D3020002E
:10510000000808F8000000000020203F20200000D8
:105110008080808080808000203F20003F20003FF2
:105120008080008080800000203F210000203F2000
:105130000000808080800000001F202020201F00B1
:10514000808000808000000080FFA12020110E00E0
:105150000000008080808000000E112020A0FF80D1
:10516000808080008080800020203F21200001007E
:1051700000008080808080000033242424241900D3
:10518000008080E0808000000000001F20200000E0
:105190008080000000808000001F202020103F2021
:1051A000808080000080808000010E3008060100B1
:1051B00080800080008080800F300C030C300F0056
:1051C00000808000808080000020312E0E31200081
:1051D000808080000080808080818E7018060100B1
:1051E00000808080808080000021302C22213000CF
:1051F00000000000807C020200000000003F4040F0
:1052000000000000FF00000000000000FF000000A0
:105210000002027C800000000040403F00000000CF
:10522000000601010202040400000000000000006A
:105230000000000000000000010203040607080946
:105240000000000001020304685200080000002072
:1052500040000000A83D0008A852000840000020BF
:1052600000080000B83D0008000000000000000039
:10527000000000000000000000000000000000002E
:10528000000000000000000000000000000000001E
:1052900000000000010000000100000010000000FC
:0852A000000000000024F400EE
:0400000508000131BD
:00000001FF
